:020000040800F2
:1000000040060020ED010008D52300080522000865
:10001000D1230008EF030008332600080000000089
:100020000000000000000000000000004124000863
:100030000506000800000000D7230008432400083C
:10004000070200080702000807020008070200086C
:10005000070200080702000807020008070200085C
:100060000702000807020008070200084D05000803
:10007000070200080702000807020008070200083C
:10008000070200080702000807020008070200082C
:10009000070200080702000807020008070200081C
:1000A000070200080702000807020008070200080C
:1000B00007020008070200080702000807020008FC
:1000C00007020008070200080702000807020008EC
:1000D00007020008070200080702000807020008DC
:1000E00007060008070200080702000807020008C8
:1000F00007020008070200080702000807020008BC
:1001000007020008070200080702000807020008AB
:10011000070200080702000807020008070200089B
:10012000070200080702000807020008070200088B
:10013000070200080702000807020008070200087B
:10014000070200080702000807020008070200086B
:10015000070200080702000807020008070200085B
:10016000070200080702000807020008070200084B
:10017000070200080702000807020008070200083B
:10018000070200080702000807020008070200082B
:10019000070200080000000007020008070200082C
:1001A000070200080702000807020008070200080B
:1001B00007020008070200080702000807020008FB
:1001C00007020008070200080702000807020008EB
:1001D0000702000807020008DFF80CD000F03CF826
:1001E0000048004791260008400600200648804746
:1001F00006480047FEE7FEE7FEE7FEE7FEE7FEE70C
:10020000FEE7FEE7FEE7FEE7B9240008D901000893
:1002100040EA01039B0703D009E008C9121F08C088
:10022000042AFAD203E011F8013B00F8013B521E08
:10023000F9D27047D2B201E000F8012B491EFBD27F
:1002400070470022F6E710B513460A4604461946E1
:10025000FFF7F0FF204610BD064C074D06E0E068B2
:1002600040F0010394E8070098471034AC42F6D3FD
:10027000FFF7B6FF4C2700086C27000810B586B0C2
:10028000044600BF1448C06C40F001001249C86425
:100290000846C06C00F00100009000BF00BF0F488E
:1002A00030F81400019001200290002003900320F8
:1002B00004900B4951F8240001A900F035FF074ACA
:1002C00032F81410064A52F82400002201F01CF8FB
:1002D000002006B010BD00000010024028270008D2
:1002E0008400002010B50446054A32F81410054A6F
:1002F00052F82400012201F007F8002010BD000090
:10030000282700088400002010B50446044A32F86B
:100310001410044A52F8240000F0ECFF002010BD35
:1003200028270008840000207047000030B587B0FF
:1003300004460D4600BF2348C06C40F0040021492C
:10034000C8640846C06C00F00400019000BF00BF04
:100350001D4830F81400029002200490059045B921
:1003600000200390194951F8240002A900F0DCFE96
:1003700025E04FF488100390144951F8240002A995
:1003800000F0D2FE124A52F82410124A02EBC400C6
:1003900000F0A2FE104951F824200E4901EBC400E0
:1003A000002100F0A0FE0D4A52F824100C4A10570C
:1003B000002201F033F80A49085701F01BF8002029
:1003C00007B030BD001002402A2700088800002036
:1003D000302700087C0000208C00002090000020C6
:1003E0002C27000810B50020FFF79EFF10BD00BFAE
:1003F000FEE7000038B50446324801F04BFE08B174
:1004000000F007F9304801F045FE08B100F001F9AD
:1004100014B1012C10D107E000212C4800F093FC0E
:1004200008B100F0F6F809E00021284800F078FC57
:1004300008B100F0EEF801E000F0EBF800BF24484E
:10044000C5681E202249C8600020086100221F489C
:1004500000F0E8F908B100F0DCF814B1012C21D16A
:1004600014E040F2444000234FF4805219460090BB
:10047000164800F0DAF808B100F0CBF80021134874
:1004800000F068FB08B100F0C4F80DE000203C2348
:10049000104A014600900D4800F09CFB08B100F0A6
:1004A000B8F801E000F0B5F800BF064801F09EFD85
:1004B00008B100F0AEF8044801F098FD08B100F072
:1004C000A8F838BD78010020C4010020A400002055
:1004D000100200200200002070B50446A56A2846DC
:1004E00000F0C6FA0120287170BD70B50446A56AF7
:1004F000284600F097F80120287170BD70B50546B8
:10050000AC6A206940F004002061204600F0B2FA95
:100510000120207170BD70B50546AC6A206940F0BD
:1005200004002061204600F07FF80120207170BD9A
:1005300070B50446A56A284600F09BFA70BD70B5F8
:100540000446A56A284600F06EF870BD10B5024852
:1005500000F065FC10BD0000B800002030B50E4D65
:100560000468AC4201D20D4901E00C4920310B4630
:100570000478083C1425B4FBF5F2446CA40803EBA2
:1005800084048464054C8034C46402F01F05012493
:10059000AC40046530BD0000080402400008024081
:1005A00001794A1E064B03EB82024265044A40323F
:1005B00082654A1E02F01F0301229A40C2657047FD
:1005C0000009024030B5D0E913546C60446D14B199
:1005D000D0E916546C6090F8444004F01F050124E3
:1005E000AC40056C6C60046863608468102C04D1B6
:1005F0000468A2600468E16003E00468A160046824
:10060000E26030BD704710B54FF4005000F07EFD41
:1006100010BD06E00020FFF777FE4FF47A7000F07F
:1006200047FDF7E7704770477047F0B50446059DF2
:1006300000BF6079012801D10220F0BD0120607166
:1006400000BF0220207151B92068806D00F4604025
:1006500042EA05461E4330432668B06509E020683B
:10066000C06D00F4604042EA05461E4330432668F0
:10067000F0652068006801F01007C026BE40B04356
:1006800001F01007C026BE403043266830600120CC
:10069000207100BF0020607100BF00BFCDE72DE9D1
:1006A000F84F0446884615464FF0000A14B94FF03B
:1006B000010AB4E02079022802D14FF0010AAEE02D
:1006C00000BF6079012802D10220BDE8F88F012027
:1006D000607100BF2068C06B05F0100207219140D7
:1006E00000EA01092068006805F01002012191402C
:1006F000884321680860012000F0DAFC2068C06BA4
:1007000005F010020721914088432168C8632068E2
:1007100000901DB900980830009002E00098143055
:1007200000904FF40060009908602068006805F0B0
:1007300010024FF480419140084321680860102660
:10074000082723E02068806B05F010021F219140EC
:10075000884305F0100106FA01F108432168886317
:10076000012000F0A5FC2068406B05F010024FF45A
:1007700080419140084005F010024FF480419140C3
:10078000884201D1F61B00E03E447F08002FD9D1FA
:100790002068806B05F010021F219140884305F00E
:1007A000100106FA01F1084321688863012000F076
:1007B0007FFC2068406B05F010024FF480419140AF
:1007C000084070B9761C2068806B05F010021F216C
:1007D0009140884305F0100106FA01F108432168B1
:1007E00088632068006805F010024FF48041914052
:1007F000884321680860C8F820600120C8F81C0000
:100800002068C06B05F0100207219140884340EA40
:1008100009002168C86300BF0020607100BF504616
:1008200053E700002DE9F05F04460D461646E869DF
:10083000012800D100BFA868042800D100BF00BF74
:100840006079012802D10220BDE8F09F012060718B
:1008500000BF02202071A868042855D100F05AFD7D
:100860008246D6B90CE000F055FDA0EB0A00012845
:1008700006D9206940F00800206103202071E3E7D9
:100880002068406B00F400400028ECD1012000F00B
:100890000FFC686A2168086419E00CE000F03AFD7A
:1008A000A0EB0A00012806D9206940F00800206169
:1008B00003202071C8E72068406B00F0004000284A
:1008C000ECD1012000F0F4FB686A216848642068DC
:1008D000806C06F0100240F2FF319140884306F030
:1008E0001002A96A91400843216888642068C06C9E
:1008F00006F01002FF219140884306F01002E96AD9
:10090000914008432168C864E86901280FD1206834
:10091000876B06F010011F2088408743D5F82080A0
:1009200006F0100008FA00F007432068876320688B
:10093000C76B06F01001072088408743A86901288B
:1009400002D14FF000090CE0A869022802D14FF053
:10095000010906E0686910B94FF0010901E04FF0A4
:1009600000096969A868084340EA090806F010010F
:100970004FF48070884087432879012801D1000214
:1009800000E0002040EA080806F010014FF4007073
:10099000884087436879012801D1400200E00020A7
:1009A00040EA080827F44047286802280FD100F0E1
:1009B0002FFF83462C498B4502D947F4004708E0B6
:1009C0002A48834502D947F4804702E001E02868BD
:1009D000074306F0100108FA01F007432068C763D7
:1009E0002068006806F010024FF48041914088436F
:1009F000216808602068076806F0100140F6FE7064
:100A000088408743D5F80C8006F0100108FA01F001
:100A10000743206807602068006806F01002C021C4
:100A20009140884321680860287BC0F38308287CB4
:100A3000C0F3830048EA00282068006E06F0100228
:100A400040F60F719140884306F0100108FA01F159
:100A50000843216808660120207100BF00206071F2
:100A600000BF00BFF0E600000068890900B4C404BC
:100A700070477047704710B504460CB9012010BD8F
:100A8000207920B900206071204600F009F802208A
:100A9000207100202061012020710020EFE700007C
:100AA00010B586B00446142101A8FFF7CAFB2549FA
:100AB0002068884243D100BF2348C06C40F4803096
:100AC0002149C8640846C06C00F48030009000BF23
:100AD00000BF00BF0846C06C40F00100C864084673
:100AE000C06C00F00100009000BF00BF30200190FA
:100AF000032002900020039001A94FF0904000F0E5
:100B000013FB124812490860062048601021104863
:100B100081600021C160802101618900416149003B
:100B200081612021C1610021016200F0F7F908B163
:100B3000FFF76FFD00BF0648A060846200BF06B0EB
:100B400010BD0000000800500010024008000240E4
:100B5000B800002070B504460D4600BF607901283A
:100B600001D1022070BD0120607100BF0220207100
:100B70002068006805F010020121914008432168B7
:100B80000860012000F094FA65B92068006800F060
:100B90003E00022816D12068406840F0010021681C
:100BA00048600FE02068006800F4781105F010023A
:100BB00002209040814205D12068406840F0020048
:100BC000216848600120207100BF0020607100BFD3
:100BD00000BFC7E72DE9F04704460D461746994682
:100BE000DDF820804FF0000A00BF6079012802D1B3
:100BF0000220BDE8F0870120607100BF0220207153
:100C000035BB4148A168C8624048A16808634048B4
:100C1000A16848632068006840F48050216808603B
:100C2000B8F1000F06D0B8F1040F07D0B8F1080FE3
:100C30000CD107E0206800F1080A08E0206800F104
:100C40000C0A04E0206800F1100A00E000BF26E072
:100C50003048E168C8623048E16808632F48E168BD
:100C600048632068006840F0805021680860B8F14F
:100C7000000F06D0B8F1040F07D0B8F1080F0CD15F
:100C800007E0206800F1140A08E0206800F1180A63
:100C900004E0206800F11C0A00E000BF00BF6DB94D
:100CA0002068006840F40050216808604B465246B6
:100CB0003946A06800F09AF906460CE02068006802
:100CC00040F00050216808604B4652463946E068C3
:100CD00000F08CF9064600BF0020607100BF66B9C5
:100CE0002068006805F01002012191400843216846
:100CF0000860012000F0DCF903E0206940F0040006
:100D00002061304675E70000D9040008310500086D
:100D1000FD040008EB0400083F0500081705000863
:100D200070B504460D462068006805F010020121E8
:100D30009140884321680860012000F0B9F9012042
:100D40002071002070BD70B504460D462068006813
:100D500005F010024FF480519140884321680860EB
:100D60002068006805F01002012191408843216845
:100D70000860012000F09CF94DB9A06800F014F85B
:100D80002068006820F400502168086008E0E068EE
:100D900000F00AF82068006820F000502168086020
:100DA00001202071002070BD0146002091F825200F
:100DB000022A03D00422CA63012027E00A681268CD
:100DC00022F00E020B681A608A6C126822F480729C
:100DD0008B6C1A600A68126822F001020B681A60B4
:100DE00091F8442002F01F0301229A400B6C5A60D4
:100DF000D1E913325A604A6D42B14A6D126822F449
:100E000080724B6D1A60D1E916325A60012281F866
:100E1000252000BF002281F8242000BF704770B554
:100E20000446206C05682068066894F8440000F0C9
:100E30001F01042088402840E0B106F00400C8B13A
:100E40002068006800F0200028B92068006820F0C1
:100E500004002168086094F8440000F01F01042099
:100E60008840216C4860206B002856D02046216BBA
:100E7000884752E094F8440000F01F0102208840A7
:100E8000284018B306F0020000B32068006800F0A4
:100E9000200040B92068006820F00A00216808603E
:100EA000012084F8250094F8440000F01F0102207E
:100EB0008840216C486000BF002084F8240000BFF7
:100EC000E06A50B32046E16A884726E094F844007F
:100ED00000F01F01082088402840F0B106F008000B
:100EE000D8B12068006820F00E002168086094F8EE
:100EF000440000F01F0101208840216C486001205F
:100F0000E06384F8250000BF002084F8240000BFBF
:100F1000606B10B12046616B884770BD70B50446A8
:100F20000CB9012070BD2F49206888420BD22E4990
:100F30002068401A1421B0FBF1F0800060642A4858
:100F4000083820640AE027492068401A1421B0FBC1
:100F5000F1F080006064234808382064022084F89F
:100F600025002068056847F6F0708543D4E9020142
:100F700008432169084361690843A1690843E1699D
:100F80000843216A08430543206805602046FFF7AF
:100F9000E5FAA068B0F5804F01D1002060602079AB
:100FA000A16C0860D4E913104860606860B16068A3
:100FB000042809D82046FFF7F3FA0020616D086085
:100FC000D4E91610486003E000206065A065E06584
:100FD0000020E063012084F82500002084F824002C
:100FE00000BF9FE708040240080002402DE9F041DD
:100FF00004460D4616461F464FF0000800BF94F801
:101000002400012802D10220BDE8F081012084F8EB
:10101000240000BF94F8250001283FD1022084F865
:1010200025000020E0632068006820F001002168AE
:1010300008603B46324629462046FFF7C3FA206B3C
:1010400030B12068006840F00E00216808600BE0B5
:101050002068006820F004002168086020680068AB
:1010600040F00A0021680860A06C006800F480303D
:1010700028B1A06C006840F48070A16C0860606DBD
:1010800028B1606D006840F48070616D0860206870
:10109000006840F001002168086006E000BF002001
:1010A00084F8240000BF4FF002084046ACE700007F
:1010B00070B5044600F02EF906462546681C10B1AE
:1010C00004480068054400BF00F024F9801BA842D2
:1010D000FAD370BD9C00002002460AB90120704777
:1010E00011600020FBE710B50346002009B95A60E3
:1010F00003E000245C60012000BF00BF10BD0000C1
:101100000121014A117070470000002010B504460B
:1011100004480068204020B1024804602046FFF7E0
:10112000EFFF10BD1404014078B502460B460021C4
:10113000CAE001268E401D6805EA0604002C73D023
:101140001D7905F00305012D04D01D7905F0030577
:10115000022D13D190684E000325B540A8434E00E0
:10116000DD68B54028439060506801258D40A84354
:101170001D79C5F300158D40284350601D7905F099
:101180000305032D09D0D0684E000325B540A843C0
:101190004E009D68B5402843D0601D7905F00305D9
:1011A000022D13D1CE0802F1200555F826004D0777
:1011B000EE0E0F25B540A8434E07F60E1D69B5404B
:1011C0002843CE0802F1200545F8260010684E009D
:1011D0000325B540A8431D7905F003054E00B54031
:1011E000284310605D6805F44035002D6BD000BFCA
:1011F000384D2D6E45F00105364E356635462D6E5F
:1012000005F00105009500BF00BF4FEAB6358E0816
:1012100055F826008D072E0F0F25B540A843B2F1D3
:10122000904F02D100251AE04DE02B4DAA4201D18A
:10123000012514E0294DAA4201D102250FE0284DD5
:10124000AA4201D103250AE0264DAA4201D1042574
:1012500005E0254DAA4201D1052500E006258E07AF
:10126000360FB5402843214D8E0845F82600204D05
:101270002868A0435D6805F4801505B120431C4D26
:1012800028602D1D2868A0435D6805F4001505B190
:101290002043174D2D1D2860154D2D1F2868A04394
:1012A0005D6805F4003505B12043114D2D1F286000
:1012B0002D1F2868A0435D6805F4803505B12043E3
:1012C0000B4D083D2860491C1D68CD40002D7FF462
:1012D00030AF78BD0010024000040048000800480C
:1012E000000C0048001000480014004808000140AD
:1012F0000804014010B5426921EA020302EA010430
:1013000043EA0443836110BD0AB1816100E0816258
:1013100070470000014800687047000094000020FA
:101320000348006803490968084401490860704798
:10133000940000209C00002010B50024032000F041
:10134000ABF8002000F008F808B1012401E000F03B
:101350002FF8204610BD000070B504460025114846
:101360000068D8B10F4800684FF47A71B1FBF0F013
:101370000D490968B1FBF0F6304600F04FFD58B951
:10138000102C07D200222146501E00F047F80748D3
:10139000046004E0012502E0012500E00125284663
:1013A00070BD00009C000020A000002098000020DC
:1013B00008B500BF0E48006E40F001000C490866F9
:1013C0000846006E00F00100009000BF00BF00BFA3
:1013D0000846806D40F0805088650846806D00F0BA
:1013E0008050009000BF00BF00F0F6F808BD00007C
:1013F000001002400146084600280DDB00BF00BF78
:1014000000F01F0301229A4043099B0003F1E023EF
:10141000C3F8002100BF00BF00BF70472DE9F05F97
:1014200080460D46164601F007F9074639462A461A
:10143000334601F00700C0F1070ABAF1040F02D9E0
:101440004FF0040A01E0C0F1070AD14600F1040A96
:10145000BAF1070F02D24FF0000A01E0A0F1030A2F
:10146000D4464FF0010A0AFA09FAAAF1010A0AEA77
:10147000020A0AFA0CFA4FF0010B0BFA0CFBABF163
:10148000010B0BEA030B4AEA0B042146404601F02C
:10149000DBF8BDE8F09F000000BF00F00702064B3C
:1014A00019684FF6FF031940044B0B4343EA02212E
:1014B000014B196000BF70470CED00E00000FA0519
:1014C00002468ABB4148006800F4C060B0F5806FF6
:1014D0002BD13E488030006820F480703B4BC3F82D
:1014E00080001846006820F4C06040F40070186066
:1014F0003748006832235843364BB0FBF3F0411CA9
:1015000000E0491E3148406900F48060B0F5806F0A
:1015100001D10029F5D12D48406900F48060B0F573
:10152000806F51D10320704708E028488030006860
:1015300020F48070254BC3F8800045E0B2F5007FB1
:101540003AD12248006800F4C060B0F5806F2AD11B
:101550001E488030006840F480701C4BC3F8800047
:101560001846006820F4C06040F400701860184805
:10157000006832235843174BB0FBF3F0411C00E0E6
:10158000491E1248406900F48060B0F5806F01D1B7
:101590000029F5D10D48406900F48060B0F5806FF6
:1015A00012D10320BFE709488030006840F4807002
:1015B000064BC3F8800007E00448006820F4C060D0
:1015C00040F48060014B18600020ACE700700040E0
:1015D000A000002040420F000348806840F4804093
:1015E0000149886070470000007000402DE9F0411B
:1015F00004460D464FF0000814B90120BDE8F08103
:101600007D48006800F00F00A8420ED27A480068BA
:1016100020F00F002843784908600846006800F071
:101620000F00A84201D00120E8E7207800F0010077
:10163000002864D06068032823D17048006800F057
:10164000007008B90120D9E700F0C6FE06466C48D4
:10165000864237D96948806800F0F00030B12078C0
:1016600000F0020002282DD1A06858BB63488068B2
:1016700020F0F00040F08000604988604FF0800862
:1016800020E06068022806D15C48006800F4003061
:1016900040B90120B2E75948006800F4806008B9F9
:1016A0000120ABE700F0BAF806465548864209D952
:1016B0005248806820F0F00040F080004F49886078
:1016C0004FF080084D48806820F0030061680843AF
:1016D0004A498860FFF71EFE074608E0FFF71AFE3A
:1016E000C01B41F28831884201D9032086E7434874
:1016F000806800F00C006168B0EB810FEED12078BB
:1017000000F00200022820D1207800F00400042814
:1017100005D13A48806840F4E06038498860207814
:1017200000F00800082807D13448806820F4605091
:1017300040F4E060314988603048806820F0F00073
:10174000A16808432D49886008E0B8F1800F05D1F1
:101750002A48806820F0F000284988602648006800
:1017600000F00F00A84219D92348006820F00F00AC
:10177000284321490860FFF7CDFD074608E0FFF741
:10178000C9FDC01B41F28831884201D9032035E7E9
:101790001948006800F00F00A842F0D1207800F04E
:1017A0000400042807D11548806820F4E060E1684F
:1017B000084312498860207800F00800082808D102
:1017C0000E48806820F46050216940EAC1000B494E
:1017D000886000F023F809498968C1F30311094AB8
:1017E000515C01F01F01C8400749086007480068C4
:1017F000FFF7B2FD02E700000020024000100240A7
:1018000000B4C40434270008A00000209800002081
:101810000148006870470000A000002070B5224D0C
:10182000AD6805F00C05042D01D120483AE01E4DAD
:10183000AD6805F00C05082D01D11D4832E01A4DA8
:10184000AD6805F00C050C2D2BD1174DED6805F09A
:101850000304154DED68C5F303156A1C022C0CD06A
:10186000032C09D1124DB5FBF2F50F4EF668C6F305
:10187000062605FB06F10AE000BF0C4DB5FBF2F5AC
:10188000094EF668C6F3062605FB06F100BF00BF49
:10189000054DED68C5F341656D1C6B00B1FBF3F0C0
:1018A00000E0002070BD0000001002400024F400A1
:1018B00000366E012DE9F843044614B90120BDE855
:1018C000F883207800F00100002865D0FC4880688B
:1018D00000F00C07FA48C06800F003060C2F01D195
:1018E000032E01D0082F0AD1F548006800F400301B
:1018F000002851D0606800284ED10120DFE700BFEA
:101900006068B0F5803F06D1ED48006840F4803053
:10191000EB4908601AE06068B0F5A02F0BD1E848E9
:10192000006840F48020E64908600846006840F4FA
:10193000803008600AE0E248006820F48030E04926
:1019400008600846006820F48020086000BF6068D6
:1019500088B1FFF7DFFC054606E0FFF7DBFC401B24
:10196000642801D90320AAE7D548006800F40030B4
:101970000028F2D010E0FFF7CDFC054606E0FFF7A7
:10198000C9FC401B642801D9032098E7CC480068B3
:1019900000F400300028F2D1207800F00200022884
:1019A00060D1C748806800F00C07C548C06800F0E7
:1019B00003060C2F01D1022E01D0042F18D1C048EC
:1019C000006800F4806018B1E06808B9012076E78B
:1019D000BB48406820F0FE40217C40EA0160B849E5
:1019E0004860B8480068FFF7B7FC18B3012066E705
:1019F000E06800B3B248006840F48070B049086005
:101A0000FFF788FC054606E0FFF784FC401B022830
:101A100001D9032053E7AA48006800F48060002839
:101A2000F2D0A748406820F0FE40217C40EA0160E7
:101A3000A349486016E0A248006820F48070A049DD
:101A40000860FFF767FC054606E0FFF763FC401BF4
:101A5000022801D9032032E79948006800F4806029
:101A60000028F2D1207800F00800082836D16069FB
:101A7000D0B193489430006840F001009049C1F81B
:101A80009400FFF747FC054606E0FFF743FC401BC8
:101A9000022801D9032012E789489430006800F039
:101AA00002000028F1D019E085489430006820F049
:101AB00001008349C1F89400FFF72CFC054606E0BD
:101AC000FFF728FC401B022801D90320F7E67C48D9
:101AD0009430006800F002000028F1D1207800F076
:101AE0000400042872D14FF000087548806D012170
:101AF00021EA107078B100BF7148806D40F08050CD
:101B00006F4988650846806D00F08050009000BFE6
:101B100000BF4FF001086C48006800F48070B0B955
:101B20006948006840F4807067490860FFF7F2FB7D
:101B3000054606E0FFF7EEFB401B022801D9032013
:101B4000BDE66148006800F480700028F2D000BF54
:101B5000A068012808D15A489030006840F0010080
:101B60005749C1F8900021E0A06805280FD15448DA
:101B70009030006840F004005149C1F890000846D8
:101B8000D0F8900040F00100C1F890000EE04C4801
:101B90009030006820F001004949C1F890000846E3
:101BA000D0F8900020F00400C1F8900000BFA068B9
:101BB000A8B1FFF7AFFB054609E0FFF7ABFB401B01
:101BC00041F28831884202D9032078E625E03C487A
:101BD0009030006800F002000028EED013E0FFF71C
:101BE00099FB054608E0FFF795FB401B41F2883161
:101BF000884201D9032062E631489030006800F045
:101C000002000028EFD1B8F1010F05D12C48806DFA
:101C100020F080502A49886500BF207800F020001D
:101C2000202836D1A069D0B125489830006840F00E
:101C300001002349C1F89800FFF76CFB054606E058
:101C4000FFF768FB401B022801D9032037E61C4838
:101C50009830006800F002000028F1D019E0184820
:101C60009830006820F001001549C1F89800FFF78E
:101C700051FB054606E0FFF74DFB401B022801D94A
:101C800003201CE60E489830006800F0020000288F
:101C9000F1D1E069002860D00948806800F00C00AC
:101CA0000C287FD0E069022858D10548006820F050
:101CB000807003490860FFF72DFB05460DE000002A
:101CC000001002409800002000700040FFF722FB47
:101CD000401B022801D90320F1E54D48006800F0BF
:101CE00000700028F2D1D4E90810401E41EA00112A
:101CF000A06A41EA0021208E0122C2EB500041EA95
:101D000040513420005DC2EB500041EA40612C207C
:101D1000005D41EAC0603E49C9683E4A114008433F
:101D20003B49C8600846006840F08070086008467B
:101D3000C06840F08070C860FFF7ECFA054606E026
:101D4000FFF7E8FA401B022801D90320B7E5304825
:101D5000006800F000700028F2D056E02C480068BF
:101D600020F080702A4908600846C06820F003000F
:101D7000C8600846C068284908402549C860FFF780
:101D8000C9FA054607E00DE0FFF7C4FA401B022838
:101D900001D9032093E51E48006800F00070002878
:101DA000F2D132E0E069012800D188E51848C66820
:101DB00006F00301206A814225D106F0F001606A35
:101DC000401EB1EB001F1ED106F4FE41A06AB1EB2C
:101DD000002F18D106F078412C20005DB1EBC06FC8
:101DE00011D106F4C001208E0122C2EB5000B1EBEC
:101DF000405F08D106F0C0613420005DC2EB5000A6
:101E0000B1EB406F01D0012059E5002057E50000FB
:101E1000001002400C809F01FFFFEEFE70B50446EB
:101E20002546681EB0F1807F01D301200FE0681EB7
:101E30004FF0E02148610F214FF0FF3000F004FC2B
:101E400000204FF0E021886107200861002070BD6C
:101E500030B502460B4600BF92F83C00012801D184
:101E6000022030BD012082F83C0000BF022082F831
:101E70003D001068416810688468234D1068A842CE
:101E800007D0224D1068A84203D0214D1068A84207
:101E900003D121F47001586801431E4801401868BD
:101EA000014310684160184D1068A8421BD01068AB
:101EB000B0F1804F17D0184D1068A84213D0174DBD
:101EC0001068A8420FD0164D1068A8420BD00F4DD5
:101ED0001068A84207D0134D1068A84203D00C4DDB
:101EE0001068A84205D124F0800498680443106863
:101EF0008460012082F83D0000BF002082F83C0091
:101F000000BF00BFADE70000002C014000340140DD
:101F1000005001408FFFFFFD00040040000800401A
:101F2000000C00400040014010B504460CB90120EF
:101F300010BD94F83D0028B9002084F83C002046EC
:101F400000F02AF8022084F83D00211D206800F0EE
:101F5000C1FA012084F8480000BF84F83E00012146
:101F60003F20015540200155412001554220015597
:101F70004320015500BF00BF012084F844004520E4
:101F80000155462001554720015500BF012084F826
:101F90003D000020CCE7000008B50168B1F1804F9A
:101FA0000DD100BF0F49896D41F001010D4A9165C6
:101FB0001146896D01F00101009100BF11E00A4A4C
:101FC000016891420DD100BF0649896D41F01001B1
:101FD000044A91651146896D01F01001009100BF1E
:101FE00000BF08BD0010024000100040014691F8FB
:101FF0003D00012801D001207047022081F83D00FA
:102000001C4B086898421BD00868B0F1804F17D06D
:10201000194B0868984213D0184B086898420FD0A3
:10202000174B086898420BD0164B0868984207D0A7
:10203000154B0868984203D0144B0868984210D199
:1020400008688068124B00EA0302062A0FD0B2F536
:10205000803F0CD00868006840F001000B681860F1
:1020600005E00868006840F001000B681860002077
:10207000C2E70000002C01400004004000080040BE
:10208000000C00400034014000400140005001407D
:1020900007000100014600BF0868006A41F2111202
:1020A000104050B90868006A9200104028B90868CA
:1020B000006820F001000A68106000BF012081F86C
:1020C0003D000020704700002DE9F04104460D4618
:1020D000002700BF94F83C00012802D10220BDE88F
:1020E000F081012084F83C0000BF022084F83D000C
:1020F000206886684248064026F47F46206886604D
:102100002868B0F5005F33D015DC402851D008DCDA
:10211000002858D0102857D0202856D0302862D117
:1021200054E0502831D0602839D0702813D0B0F551
:10213000805F58D10EE000F00F01002953D100114B
:10214000A0F5803008284ED2DFE800F04142434439
:102150004546474849E0D5E902136A68206800F01F
:1021600029FA2068866846F07706206886603CE099
:10217000D5E902136A68206800F01CFA20688068BC
:1021800040F48040216888602FE0EA686968206830
:1021900000F028FA5021206800F018FA25E0EA68DB
:1021A0006968206800F031FA6021206800F00EFABA
:1021B0001BE0EA686968206800F014FA4021206892
:1021C00000F004FA11E000BF00BF00BF00BF00BF75
:1021D00000BF00BF00BF00BF00BF00BF296820686C
:1021E00000F0F4F901E0012700BF00BF012084F8EE
:1021F0003D0000BF002084F83C0000BF38466EE779
:1022000088FFCEFF00BFFEE700B58DB0302101A8EA
:10221000FEF717F81F48204908600846FEF72BFC18
:1022200008B1FEF7F6F90220019000208DF80800B1
:102230008DF809000390122004901E2005900220C2
:1022400006900120079000200890002201A9124862
:10225000FEF7E8FA08B1FEF7DCF940F2444000234B
:102260004FF48052194600900B48FEF7DEF908B192
:10227000FEF7CFF9002201A90748FEF710FA08B1CE
:10228000FEF7C7F9302201A90448FDF7C1FF0DB0E0
:1022900000BD000000080050A40000201002002033
:1022A00008B500BF1148806C40F004000F498864F5
:1022B0000846806C00F00400009000BF00BF00BF23
:1022C0000846806C40F0010088640846806C00F08D
:1022D0000100009000BF00BF002211460B20FFF755
:1022E0009DF80B20FFF786F808BD000000100240A3
:1022F00008B500BF0648C06C40F001000449C8643E
:102300000846C06C00F00100009000BF00BF08BD8F
:102310000010024000B587B00020039004900590A3
:1023200006900090019002904FF0804014490860A0
:102330009520486000211248816040F2E731C16079
:10234000002101618161FFF7EFFD08B1FEF761F93E
:102350004FF48050039003A90948FFF7B5FE08B178
:10236000FEF757F9202000900020029069460448AB
:10237000FFF76EFD08B1FEF74CF907B000BD000095
:10238000780100200EB500200090019002900E48C8
:102390000E4908600020486000210C48816004213B
:1023A000C16000218161FFF7BFFD08B1FEF731F97F
:1023B000202000900020029069460448FFF748FD65
:1023C00008B1FEF726F90EBD00100040C401002040
:1023D00000BFFEE77047704770B5164DED6805F019
:1023E0000304144DED68C5F303156B1C022C0CD0CF
:1023F000032C09D1104DB5FBF3F50E4EF668C6F36C
:10240000062605FB06F10AE000BF0C4DB5FBF3F50F
:10241000084EF668C6F3062605FB06F100BF00BFAE
:10242000044DED68C5F341656D1C6A00B1FBF2F027
:1024300070BD00000010024000366E010024F40060
:10244000704710B5FEF76CFF10BD00B593B0382192
:1024500005A8FDF7F6FE14216846FDF7F2FE4FF4DD
:102460000070FFF72DF802200590C0010890402071
:10247000099002200C9002210D9104210E914B2114
:102480000F91022110911191129105A8FFF712FAF4
:1024900008B1FEF7BEF80F20009003200190002045
:1024A00002900390049004216846FFF79FF808B15A
:1024B000FEF7AFF813B000BD0548006840F47000A7
:1024C000034908604FF00060014980390860704797
:1024D00088ED00E010B502682D4B984211D0B0F1A4
:1024E000804F0ED02B4B98420BD02B4B984208D0EC
:1024F0002A4B984205D02A4B984202D0294B984249
:1025000003D122F070024B681A43214B98421AD033
:10251000B0F1804F17D01F4B984214D01E4B9842F9
:1025200011D01E4B98420ED01D4B98420BD01E4B23
:10253000984208D01D4B984205D01D4B984202D0BE
:10254000184B984203D122F44072CB681A4322F010
:1025500080034C6943EA040202608B68C3620B6823
:1025600083620B4B98420ED00D4B98420BD00E4B12
:10257000984208D00D4B984205D00D4B984202D09E
:10258000084B984201D10B6903630123436110BDDD
:10259000002C01400004004000080040000C0040F6
:1025A000003401400050014000400140004401401F
:1025B0000048014030B50C46816821F47F4142EA71
:1025C000032525432943816030BD00000A46816808
:1025D000034B194042F00703194381607047000024
:1025E0008FFFCFFF30B50B461446026A056A25F00F
:1025F00001050562816921F0F00141EA041122F030
:102600000A021A438161026230BD30B50B4614469E
:10261000056A25F0100505628169026A21F470419E
:1026200041EA043122F0A00242EA0312816102620F
:1026300030BD00BFFEE7000002480068C0F3022082
:10264000704700000CED00E010B5002804DB0A071D
:10265000130E054A135406E00A07140E034A00F04D
:102660000F031B1FD45410BD00E400E018ED00E080
:1026700002E008C8121F08C1002AFAD1704770474B
:10268000002001E001C1121F002AFBD170470000A9
:10269000FEF752FEFFF7D9FEFFF72AFEFFF700FE16
:1026A000FFF7B2FDFFF736FEFFF76CFE0020FDF7E7
:1026B000E5FD01210020FDF739FE1648FFF796FCE5
:1026C00008B1FDF7A6FF1448FFF790FC08B1FDF72D
:1026D000A0FF00211148FEF73DFA08B1FDF799FF70
:1026E0000020FDF7FFFD13E00D48007880B10D4894
:1026F000007818B901200B49087002E00020094950
:10270000087008480078FDF775FE0020044908703D
:10271000EAE7000078010020C4010020A4000020A6
:102720000000002001000020200000202800000000
:102730000D0000060000000000000000010203047C
:102740000607080900000000010203046C270008C6
:1027500000000020A40000007026000810280008D7
:10276000A40000209C050000802600080000FF0750
:10277000A9084F09F309900A260BB30B370CAE0CCE
:10278000180D740DC00DFD0D280E420E4C0EDD0C03
:10279000280EFD0DC00D8A0D180DAE0C370CB30BB5
:1027A000260B900AF3094F09A90801085807B20639
:1027B000900650060006800578054005FF04AA042F
:1027C0007204300400047E033A037E0300043004E4
:1027D0007204AA04FF04400578058005000650062F
:1027E0009006B20633070000000000000000000061
:1027F0000000004800080048E50300080F00000042
:102800000000000010000000010000000024F4009F
:04000005080001D915
:00000001FF
