:020000040800F2
:1000000010050020D5000008091B0008751700081E
:1000100000000000000000000000000000000000E0
:100020000000000000000000000000000D1B0008A0
:1000300000000000000000000B1B00080F1B000860
:10004000E700000800000000E7000008E7000008E3
:10005000E7000008E7000008E7000008E7000008E4
:1000600000000000E7000008E7000008E7000008C3
:10007000E7000008E7000008E700000800000000B3
:10008000E70000080000000000000000E700000892
:1000900000000000E7000008E7000008E700000893
:1000A000E7000008E7000008E7000008E700000894
:1000B000E700000800000000000000000000000051
:1000C0000348854600F034F8004800470134000832
:1000D000100500200448804704480047FEE7FEE77B
:1000E000FEE7FEE7FEE7FEE7171B0008C100000879
:1000F00070B50446002903D000202022012310E01F
:10010000002801D00020C043C046C0460DE025466F
:10011000D5408D4205D30D469540641B1D46954044
:1001200040191546521E002DF1DC214670BD00001D
:10013000064C0125064E05E0E36807CC2B430C3C3A
:1001400098471034B442F7D3FFF7BEFF30370008AA
:1001500050370008EFF3108072B6FEE7B0B50446E2
:1001600000F0F8F80546601C02D004480078041935
:1001700000F0F0F8401BA042FAD3B0BD040000200C
:10018000F0B58CB00B916A4A904201D0052200E094
:10019000032200920B990F68002F00D1C6E00123C3
:1001A000002635460293099608960A9013E03A43D2
:1001B000614802600A980B9A17683A46DA40361D81
:1001C00008355B1C0999891C09910899491C0891FB
:1001D000002A00D1AAE0591E029C07918C402740BA
:1001E000E9D0069505960B9A516803260D463540D1
:1001F0006A1E012A04911BD8032209998A400A9891
:10020000806890430B9EF6688E4006430A9886608D
:100210000498C006C00F079988400A9E7668A643D6
:1002200006430A984660D4430A98089949000BE0AF
:10023000324609998A40D443032D05D10999039187
:100240003546059E049923E0C268019422400B9C28
:10025000A4688C401443C460022D039115D11C2066
:10026000059E30400F2282400799CC08A4000A9DC9
:100270002C19256A95430B990A6982402A43226208
:100280000A98496803250D4001E0059E0499019CE8
:10029000039A9540026822402A4302608A03920F23
:1002A000069D88D0182028400F25854003220799F5
:1002B00091430A9A1F4C6618346EAC43603605258C
:1002C0002D07AA4208D01D4DAA4207D01C4DAA42B4
:1002D000009D04D1022502E0002500E001258540B3
:1002E00025433560134802680B984068C40201D565
:1002F0003A4300E0BA43059E069D0E4C22606268B8
:10030000840201D53A4300E0BA430A4C62600A4ACB
:100310005268840301D53A4300E0BA43064C626058
:100320002268C00300D542E7BA4341E70CB0F0BDF4
:10033000000C0050001802408018024000040050D9
:1003400000080050002A02D018228150704728224D
:1003500081507047014800687047C0460C0100207A
:10036000B0B502464120135C0220202B19D1134660
:1003700040331C78012C14D0242058701068026877
:100380000124A243026022030568954305600268C8
:100390000A43026001682143016000201870202197
:1003A0005970B0BDB0B502464120135C0220202B2D
:1003B00019D1134640331C78012C14D024205870D6
:1003C000106802680124A24302600F22120205682D
:1003D000954309022943016001682143016000201F
:1003E000187020215970B0BDF0B581B0002822D01E
:1003F0000446054640356878002804D1002028705E
:10040000204600F0DDFA242068702068026801218F
:100410008A4302600F221206636893430361836874
:10042000194A13408360A368E668012E06D1CE0303
:10043000334383600AE0012001B0F0BD2127BF02F1
:100440003B438360022E01D1CB02436043680F4ED1
:100450001E434660C3681340C36022696369134347
:10046000A26912021A43C260E269236A134303605D
:1004700002680A43026000206064202169702063E2
:10048000A87001B0F0BDC046FF7FFFFF00800002F2
:10049000F0B587B0054641202C5C0220202C0BD102
:1004A0000C9C002C0AD00D9E002E07D003932B46E7
:1004B00040331F78012F06D107B0F0BD0120410263
:1004C000696407B0F0BD0092049101200293059089
:1004D0001870FFF73FFF06902868816909040CD562
:1004E0000598C703FFF736FF0699401A192800D967
:1004F0000EE1286881693942F4D10E992222029FC7
:100500007A704022BA7000226A646E856C62019231
:100510006A63854B049A1A40039CE3B21B0404925D
:100520009B184268814E32409B180122059252036B
:100530009A18426028460E46069A01F011FA0028E1
:1005400004D001983870059807B0F0BD012C0AD08E
:1005500028680099090A816228463146069A01F006
:10056000FFF90028EDD128680099C9B2816281693C
:10057000490611D4002E00D1A4E03146711C1AD1D5
:100580008169490608D48169490605D4816949060B
:1005900002D481694906F3D5698D090A12D04368EE
:1005A00062490B40041DFF21624F049A14E0286841
:1005B00081694906F0D4FFF7CDFE0699401AB04292
:1005C000F5D981E0698D4268F84B1A40CBB21B0423
:1005D000049C1B19041D564F1A433A432260298577
:1005E000F54F816949071CD4711C0ED0002E00D133
:1005F00089E0FFF7AFFE0699401AB04200D987E0C4
:10060000286881694907F4D50BE08169490708D456
:100610008169490705D48169490702D4816949077D
:10062000F3D5696A406A0870688D401E6885686AFB
:10063000401C6862288D401E2885698D002939D0AC
:10064000000437D12868816909061AD4711C0CD0BE
:10065000002E5BD0FFF77EFE0699401AB04257D8B5
:10066000286881690906F5D50BE08169090608D477
:100670008169090605D48169090602D481690906E0
:10068000F3D5698D090A07D0FF21298542683A40D0
:10069000001D0499C74B0AE06A8D2A8541683940DC
:1006A000D2B21204049BD21801235B06001D114331
:1006B00019430160688D00280ED0286881694907B8
:1006C00092D5AEE7FFF746FE686C202108436864C8
:1006D00079700020B87034E728463146069A01F058
:1006E0000BF90028029C059800D0E5E62868202137
:1006F000C1614268B14B1340436061700198207042
:10070000A07007B0F0BDFFF725FE01E0FFF722FE65
:10071000686C202108436864029A517000201070B0
:100720009070059807B0F0BDFF030000009800FC32
:10073000002400020024FF01F0B587B004464120E8
:10074000255C0220202D0BD10C9D002D0AD00D9E82
:10075000002E07D00393234640331F78012F06D184
:1007600007B0F0BD01204102616407B0F0BD009206
:1007700005910120049302901870FFF7EBFD06909D
:100780002068816909040CD50298C703FFF7E2FDD0
:100790000699401A192800D9F9E020688169394280
:1007A000F4D10E9F2121049A5170402191700021B3
:1007B0006164668565620D4661637B49059A0A40FE
:1007C000039EF1B20904059289184268774B1340E1
:1007D000C918774A89184160204601973946069A18
:1007E00001F0BEF8002804D004980570029807B004
:1007F000F0BD012E0AD020680099090A81622046C6
:100800000199069A01F0ACF80028EDD12068009912
:10081000C9B281628169090611D40199002900D108
:10082000A8E0491C20D18169090608D4816909061C
:1008300005D48169090602D481690906F3D50095BA
:10084000012102914F06618D090A5A4D5A490397B9
:1008500012D043680B40001DFF21059A2F4614E07B
:10086000206881690906EAD4FFF774FD0699401AE9
:1008700001998842F4D97FE00B46618D42681A40A5
:10088000CBB21B04059D5B19001D1A433A4302605D
:100890002185019D474E039F10E0628D22854168AE
:1008A000454B1940D2B21204059BD218001D3B469D
:1008B000114319430160608D002844D02046294629
:1008C000069A01F04DF800283AD12068616A0A784A
:1008D0008262628D521E6285491C6162218D491EB1
:1008E0002185628D002AE6D00904E4D181690906D8
:1008F0001AD4691C0CD0002D47D0FFF72BFD0699A8
:10090000401AA84243D8206881690906F5D50BE052
:100910008169090608D48169090605D48169090637
:1009200002D481690906F3D5618D090AB5D0FF218A
:100930002185426820490A40001D05993346B7E7E2
:10094000029807B0F0BD20462946069A00F0D4FF71
:100950000028049D029800D002E720682021C16190
:100960004268164B13404360697000982870A87065
:1009700007B0F0BDFFF7EEFC606C20210843606417
:10098000049A5170002090702EE7FFF7E3FC606C32
:10099000202108436064049A517000201070907008
:1009A000029807B0F0BDC046FF030000009800FCAD
:1009B000002000010000FF01009C00FC00E800FE98
:1009C000B0B58CB00024069405940494039402946A
:1009D00000681749884201D00CB0B0BD20200190BA
:1009E00001A800F0E3F8002801D0FFF7B3FB114D98
:1009F00028680221084328602868084000900620E3
:100A00000B900A94099412200890C0200790009837
:100A1000094807A9FFF7B4FB01204005A968014375
:100A2000A960A9680140009100980CB0B0BDC04613
:100A30000054004034100240000400501F48007869
:100A400002490A68101808607047C0460C0100206F
:100A500010B50124200208490A6802430A600320F5
:100A600000F00CF8002801D0204610BD00F028F856
:100A70000024204610BDC0460020024070B50F4E35
:100A800031780124002916D005467D20C000FFF7EB
:100A90002FFB014643480068FFF72AFB00F0A6FC45
:100AA000032D08D8002806D10024E0432946224619
:100AB00000F01CF87560204670BDC04604000020A0
:100AC00082B00948416801221143416041681140E8
:100AD00001910199110702680A4302600068084009
:100AE0000090009802B070473C100240002805D4E6
:100AF0000322034693430C4A9A1806E00F22024051
:100B0000083A03239A43074BD2188007C00E890185
:100B1000C9B28140FF2383401068984308431060A6
:100B20007047C0461CED00E000E400E0F0B581B085
:100B3000032569021A4E3246143A13688B43034365
:100B40001360012461020022884226D1F348016823
:100B50003068400521D50092A7020620484312497B
:100B6000FFF7C6FA201A022816D0316839420FD092
:100B7000012811D0316839420AD000280CD03168E0
:100B8000394205D0001D032806D031683942EAD128
:100B9000009A104601B0F0BD2A46104601B0F0BDE3
:100BA000147000400C00002040420F00F0B587B0E8
:100BB00081788907584F01D4002650E00590012321
:100BC00019073A46203A10680840049006D1106888
:100BD000084310601068084006900698029203913E
:100BE00001931E024D4C206830432060FFF7B2FB9A
:100BF0000546206830420AD1FFF7ACFB401B0228B3
:100C0000F7D9032605980499002923D027E003206B
:100C1000054601023868084011D0059949698842A3
:100C20000BD03868019909043A680A433A603A6877
:100C30008A433A603A4908403860C0075AD13A6856
:100C400037480240059841691143396000260499EC
:100C5000002904D1029B1968039A91431960056821
:100C6000E90705D1A9060DD401216A0416D42BE0A9
:100C7000394608390A6803239A43436813430B60D3
:100C8000A906F1D5032109033A46083A13688B43B4
:100C900081681943116001216A0415D53A46083A62
:100CA0001368204C23400C463146066933431360D9
:100CB0001C4A521C96420E46214605D10A043B4668
:100CC000503B1C6814431C602A0510D58D03032279
:100CD00092033B46083B1C689443C26814431C6063
:100CE000AA4204D10804503F3968014339603046B4
:100CF00007B0F0BDFFF72EFB0646864C386880072C
:100D00009DD4FFF727FB801BA042F7D905982E46FC
:100D1000049900299ED0A2E75C10024000700040B8
:100D2000FFFCFFFFFFFFFF3FF0B583B00D46012141
:100D300000281BD0019102907548006807242040CC
:100D4000A84216D272490868A04328430860714E31
:100D5000FFF700FB07466E4800682040A84208D015
:100D6000FFF7F8FAC01BB042F5D90321084603B0DB
:100D7000F0BD029E30688107924B0CD5410703D528
:100D800021031A680A431A600F2109021A688A436C
:100D9000B16811431960C0071BD15D48006820404D
:100DA000A8422CD95A490868A04328430860594FE3
:100DB000FFF7D0FA0646564800682040A8421ED0E9
:100DC000FFF7C8FA801BB842F5D90321084603B0E3
:100DD000F0BD0298406803285DD8810001A25158F7
:100DE0008F46C046F50D00089B0E0008A50E0008B2
:100DF000AF0E0008194608390968490559E0029AFA
:100E0000107840076F4B05D5200319688143D068DF
:100E10000843186018688006400F22D01A683821ED
:100E20000A406948082A23D01A680A40102A5ED16D
:100E3000596803220A40032A00D0644859684906C9
:100E4000490F491CFFF754F95E4949684904490EA6
:100E500048435C494968490F491CFFF749F9594B18
:100E600006E01846083800688004410F5748C8401B
:100E7000196889093C220A40274989581F220A40DB
:100E8000D0402F49086026480068FFF7F7FD01466B
:100E9000084603B0F0BD596D0AE0194608390968E3
:100EA000890306E0194608390968890101E0996D4E
:100EB0008907019900D459E71968A14301431960D2
:100EC000144FFFF747FA06463E48006838210140B4
:100ED00002984068C000814200D15EE7FFF73AFA0D
:100EE000801BB842F0D90321084603B0F0BD186852
:100EF0000840202802D10120C003B9E71868084043
:100F0000182801D00020B3E77D200002B0E7C046DA
:100F10000020024088130000A83600080C000020C2
:100F2000080000200648006826490968890A1C2232
:100F30000A40044989581F220A40D0407047C046E1
:100F40000C000020E836000810B51E4C2068800612
:100F5000400F06D0226838210A401B48082A07D1D2
:100F600010BD083C20688004410F1848C84010BDDF
:100F700022680A40102A15D1616803220A40032A18
:100F800000D0124861684906490F491CFFF7B0F8C4
:100F900061684904490E48436168490F491CFFF7DD
:100FA000A7F810BD20680840202802D10120C00306
:100FB00010BD20680840182801D0002010BD7D20F9
:100FC000000210BD0810024000127A000024F40054
:100FD000F0B587B00125002800D1ECE1049505901B
:100FE0000078C007F94F2AD0B868F96803252A4667
:100FF0008A43382101401020484082185042504115
:10100000082914D0002812D1059842680120010453
:101010008A4208D005231B049A4200D0DAE08204F9
:101020003B6813433B603A680A433A60DBE0386848
:10103000800304D505984068002800D173E1059825
:101040000078800723D40598007800070CD5B8688D
:1010500038210140182971D1386E800704D50598D0
:101060008069002800D15EE1059A1078400700D41D
:101070002EE1B86838210140202974D1F86D80072D
:1010800000D425E19068002800D021E14BE1B96847
:101090003820084010214140FA6803252A400223E5
:1010A0005340CA1851425141002820D000291ED176
:1010B0003868059AD168002900D1A2E00721C90249
:1010C0008843116901433960012001023A680A43EB
:1010D0003A608402FFF73EF906463868204200D0A5
:1010E000A1E0FFF737F9801B0228F6D963E13968E0
:1010F0004905059B03D5D968002900D113E17F215B
:1011000009027A688A435969090211437960002803
:101110000DD10720C002396881431869084338603F
:1011200038688004400FAA49C140AA480160AA4813
:101130000068FFF7A3FC002885D0F4E0386E05991D
:101140008969002979D0012108433866FFF702F93F
:101150000646386E800787D4FFF7FCF8801B03250E
:101160000228F6D927E1012003900107F86B084017
:10117000029006D1F86B0843F863F86B08400690BC
:101180000698019195480068C00513D4039804029D
:101190009249086820430860FFF7DCF806468F484C
:1011A0000068204206D1FFF7D5F8801B03250228EE
:1011B000F5D900E105988068894C012805D00528FB
:1011C0005AD1F86D04210143F965F86D039908437C
:1011D000F8655BE03B688B433B6081043B688B4375
:1011E0003B60002A3AD04404FFF7B4F8064638685A
:1011F000204200D023E7FFF7ADF8801B6428F6D922
:10120000D9E001210A02904338608C02FFF7A2F86E
:1012100006463868204200D115E7FFF79BF8801B8F
:101220000228F6D9C7E07F2000027968814305983B
:10123000406900020843786005E701218843386669
:10124000FFF788F80646386E800700D40CE7FFF7F2
:1012500081F8801B03250228F5D9ACE04404FFF790
:1012600079F806463868204200D1E8E6FFF772F8C0
:10127000801B6428F6D99EE0F96D039A9143F965C5
:10128000F96D04229143F96500280CD0FFF762F84C
:101290000646F86D800713D4FFF75CF8801B032522
:1012A000A042F6D987E0FFF755F80646F86D8007AB
:1012B00006D5FFF74FF8801B0325A042F6D97AE048
:1012C00002980028059A03D1F86B01998843F863C6
:1012D000D469002C76D0B86838210140102926D175
:1012E000012C20D0F86803210140059B1A6A914225
:1012F00019D1702101405A6A914214D17F2109020B
:1013000001409A6A120291420DD11F214904014005
:10131000DA6A9142049D4ED1072149070840196BB2
:10132000884248D14EE0049D284607B0F0BD012513
:1013300029063868049188433860FFF70BF80646A1
:10134000022C0BD103956C063868204211D0FFF7B0
:1013500001F8801B03250228F6D92CE06C063868BA
:1013600020422BD0FEF7F6FF801B03250228F6D97A
:1013700021E0F8681C490140059E20366DCE0843E7
:1013800010431902014329433143F9603868049935
:101390000843386003980007F9680143F960FEF7D5
:1013A000D9FF0646386820420CD1FEF7D3FF801BD8
:1013B00003250228F6D9284607B0F0BDF868094988
:1013C0000140F9600025284607B0F0BD001002403A
:1013D0000024F4000C0000200800002000700040F1
:1013E00088130000FCFFFEEF8C80C11F401E010E21
:1013F00001D0012070470749074A50600748036839
:101400000B400321890759180160002090600721D3
:1014100011607047FFFFFF0010E000E020ED00E0EA
:10142000B0B58421415C012901D10220B0BD024642
:1014300084322421516001680B680C680125AC439B
:101440000C606C07A3430B600021416611702020E3
:1014500050600846B0BD0000F0B581B08422825CC7
:10146000012A02D1022001B0F0BD054668352422D0
:101470002A620668376832680124A2433260072274
:101480005206B36893430B43B360406E0028204676
:1014900015D00097B768B068400F2B49095C2B4AFC
:1014A000105CC000FEF724FE04463801009F400F88
:1014B0002549095C254A105CC000FEF719FE28800A
:1014C0006C803760002028772021296201B0F0BDB0
:1014D000F0B581B08422825C012A02D1022001B0E1
:1014E000F0BD0546683524222A62066837683268EE
:1014F0000124A243326007225207B36893430B438F
:10150000B360406E0028204615D00097B768B068D9
:10151000400F0D49095C0D4A105CC000FEF7E8FD64
:1015200004463801009F400F0749095C074A105CD8
:10153000C000FEF7DDFD28806C8037600020287732
:101540002021296201B0F0BD2837000820370008AB
:10155000F0B583B0002841D0044607468437786848
:10156000002804D100203870204600F059F82420CB
:101570007860206801680125A9430160204600F0D9
:1015800035FB012827D0A06A002802D0204600F0B1
:10159000C3FA0920C00221684A6882434A60886809
:1015A0002A2290438860086801263043086000259D
:1015B000FD60FEF7CFFE034620680168090713D5DA
:1015C00016480090710500222046029300F0C4FBEB
:1015D000002807D00325284603B0F0BD0125284682
:1015E00003B0F0BD2068029B006840070CD50B4893
:1015F0000090B1050022204600F0AEFB002803D089
:101600000325284603B0F0BD20207860B860E56669
:101610003D702567284603B0F0BDC046FFFFFF01BF
:10162000B0B58CB00024069405940494039400682B
:101630001649884201D00CB0B0BD02940125019535
:1016400001A8FFF7B3FA002801D0FEF783FDFD489B
:10165000C1680B95AA031143C160C1681140009194
:1016600000990168294301600068284000900A94AD
:1016700009940220089003204002079005200007EB
:10168000009907A9FEF77CFD0CB0B0BD0038014001
:10169000F0B585B00493074688203858202812D129
:1016A0000E46012500290BD0002A09D00125290367
:1016B000B86888420BD1F00709D03869002806D1F4
:1016C000284605B0F0BD0225284605B0F0BD3C46D1
:1016D000543400200290E06321206063154601919C
:1016E000FEF738FE039065802580B868019988422E
:1016F00015D138690028314600D000210291002818
:101700000DD106460BE0029A108819490840396845
:101710008862921C02922E466088401E608060881B
:10172000002811D0049800908021002538462A46D0
:10173000039B00F011FB002811D1002EE3D030787C
:1017400039688862761CE7E70498009040210025FC
:1017500038462A46039B00F0FFFA002803D00325F1
:10176000284605B0F0BD20206063284605B0F0BDD6
:10177000FF010000FEE70000F0B585B00E4604460C
:101780004030049020688169C90606D400210F46C4
:1017900001258269D30545D448E01021C1618169E2
:1017A000890637D4711C32D015460120002E6CD129
:1017B00086030390C7030297FEF7CCFD20684268BA
:1017C0000499897883693B4209D0324007D12029A6
:1017D00005D0416831434160FEF7BCFD05462068F5
:1017E0008169890605D4FEF7B5FD401B1A28F6D39A
:1017F00077E081698906029FDED50BE08169890661
:1018000008D48169890605D48169890602D4816971
:101810008906F3D52021C1610127042101258269B0
:10182000D30503D52B02C36129432F466B0256050E
:1018300006D41A420AD1002F0BD1002005B0F0BD0A
:10184000AD02C561082529431A4202D0C3610222B4
:1018500011438269920701D5002282628269D20710
:1018600003D182690123134383614268214B1340F2
:101870004360606C08436064202004994870002035
:1018800008708870012005B0F0BD810302910390BB
:10189000C0030190019F03E0206881698906B9D4E3
:1018A000FEF758FD401BB042F6D920684268049903
:1018B000897883693B420BD0029B1A4008D12029CA
:1018C00006D04168029A11434160FEF743FD054688
:1018D000206880698006DFD4FEF73CFD401B1A2893
:1018E000F6D3206881692421039F01258269D305ED
:1018F00098D49BE700E800FE70B515460446002921
:1019000011D00E4620688069800619D420463146E1
:101910002A46FFF731FF002810D1FEF71BFD401BC0
:10192000B042EFD910E020688069800608D4002119
:1019300020462A46FFF720FF002803D0012070BD73
:10194000002070BDFEF706FD20464030616C20226D
:10195000114361644270002101708170012070BDEB
:10196000F0B581B00446006880690025800711D475
:1019700016460F46002921D0781C17D10025E943CF
:1019800020463246FFF7F8FE00281ED12068806905
:101990008007F3D5284601B0F0BDFEF7DBFC801BC5
:1019A000B84218D8206880698007F3D420463946A9
:1019B0003246FFF7E1FE0028EFD006E00021204686
:1019C0003246FFF7D9FE002803D00125284601B092
:1019D000F0BDFEF7BFFC20464030616C2022114371
:1019E000616442700021017081700125284601B0B8
:1019F000F0BD0000F0B587B00024069411480168DE
:101A000002221143016001681140019101990168AE
:101A100001273943016000683840019001980A4D60
:101A20001426284631462246FEF78CFC059404977E
:101A300011200390029602A92846FEF7A1FB07B0E9
:101A4000F0BDC046341002400004005010B51248EA
:101A500000210122114B124C046043608160C2607E
:101A6000016141618161C1610162FEF7BDFC002835
:101A700001D0FEF76FFB08480021FEF771FC00283B
:101A800001D0FEF767FB04480021FEF78BFC00281D
:101A900001D0FEF75FFB10BD20000020BC7D701060
:101AA0000054004010B5174800210C22A04B0162E1
:101AB00041628162E124640218C00160416081607A
:101AC000C260016141610838FFF742FD002801D082
:101AD000FEF740FB0B480021FFF7FAFC002801D07D
:101AE000FEF738FB07480021FFF7B6FC002801D0BD
:101AF000FEF730FB0348FFF793FC002801D0FEF708
:101B000029FB10BD74000020FEE77047704780B5C8
:101B1000FEF794FF80BD7047B0B5816ACA070CD14B
:101B20008A0714D44A071CD40A0724D4CA062CD422
:101B30008A0634D44A063CD44CE00122520403689D
:101B40005C689443C26A22435A608A07EAD501223C
:101B5000120403685C689443026B22435A604A078C
:101B6000E2D50122920403685C689443426B2243ED
:101B70005A600A07DAD50122D20303685C689443ED
:101B8000826B22435A60CA06D2D50122120303682F
:101B90009C689443C26B22439A608A06CAD501228C
:101BA000520303689C689443026C22439A604A067D
:101BB00010D501221305026854689C43456C2C43E0
:101BC00054609D4206D103235B0554689C43836C9B
:101BD00023435360090607D50121C90402685368ED
:101BE0008B43C06C18435060B0BD0000F0B581B0AD
:101BF0000446006801684B4B0B40A16822690A4308
:101C000061691143E269114319430160032109032A
:101C100043688B43E16819434160A169236A0B4320
:101C20008168414D0D401D438560C36A0F218B4380
:101C3000616A0B43C3623D4B984209D03C4B9842CA
:101C400008D13C4800688007000F3BA31F5802E002
:101C5000002700E01027264668360125EB033A48A6
:101C60009A4210D1082F55D87F443F797F00BF4456
:101C7000045123511C5151512200FFF753F9002800
:101C800017D0616A18E0082F44D8C0467F443F79D6
:101C90007F00BF44043F2D3F263F3F3F2C00FFF70E
:101CA00041F9002821D0616A22E0FFF74DF90028B0
:101CB000E7D100252EE018464900244A515AFEF784
:101CC00017FA400061684A081018FEF711FA024638
:101CD000103A1F498A421DD201400007400F0843B5
:101CE00015E0FFF731F90028DDD1002512E0184694
:101CF0004900164A515AFEF7FBF961684A08101864
:101D0000FEF7F6F901461039114A914202D22168D4
:101D1000C86000250F48306000206067A067284633
:101D200001B0F0BDF369FFCFFFF4FF1100440040A4
:101D30000038014054100240000000000400000080
:101D400002000000080000000024F400083700082A
:101D5000F0FF000001000100F0B587B015460E4607
:101D600004460768F9693140891B4A424A4100200C
:101D7000AA4224D106930494224684320C9C002C5F
:101D80001FD0611C44D1F9693140891B4A424A4144
:101D9000AA4214D1F9693140891B4A424A41AA42F8
:101DA0000DD1F9693140891B4A424A41AA4206D104
:101DB000F9693140891B4A424A41AA42E3D007B03F
:101DC000F0BD0392FEF7C6FA049FEFF310810120E5
:101DD00080F310880D2252013B681C6894431C60FC
:101DE00081F31088EFF3108180F310883A689368CC
:101DF0008343936081F310882020039A506010463B
:101E000008300021117020210160032007B0F0BDCF
:101E10000392029001200190C0020590049F06E009
:101E2000C0693040801B41424141A9422DD1FEF79B
:101E300091FA0699401AA042C7D838680168490744
:101E4000EED5C169059A1142EAD005990162EFF316
:101E50001080019C84F310880D2149013A681368B1
:101E60008B43136080F31088EFF3108084F31088A5
:101E700039688A68A2438A6080F310882020039A18
:101E80005060906010460C30BBE7029807B0F0BD80
:101E9000F0B59FB00C461AAE00253570F949012304
:101EA00000960193029114904700791CF648C022D5
:101EB00015911993FEF7ECFA3178F44E3170F4A0D5
:101EC00001F02AFB3078EE2801D000F0E9FD002C6B
:101ED0001BD01AA800210170012600900196E94D3F
:101EE0000295E9488924159922463346FEF7D0FA2F
:101EF0001A9830431AA90870009101960295E24899
:101F0000394622463346FEF717FC1AA8002606700B
:101F10000090199D0195DB480290DB4C88222046F9
:101F200039462B46FEF708FC1AA80570009001956B
:101F3000D448029080221892204639462B46FEF75C
:101F4000FBFB1AA8057000900195CE480290FF2275
:101F50001692204639462B46FEF7EEFB1AA806706D
:101F600000900195C74802902046394632462B46DC
:101F7000FEF7E2FB1AAC267000940195C14802906E
:101F80009122C14815992B46FEF782FA2178BF4865
:101F90004170C4A001F0C0FA1AA805700090019524
:101FA000B84C0294B848394632462B46FEF7C4FB7B
:101FB0001AA80670009001950294B3483946169A03
:101FC0002B46FEF7B9FB1AA8067000900195029403
:101FD000AD483946189A2B46FEF7AEFB1AA8067094
:101FE0000090019502946024A748159922462B463B
:101FF000FEF74EFA12201A9901431AA801700090B8
:102000000195A0480290A048394622462B46FEF78B
:1020100093FB68031AA908800220009104900190A4
:102020009848029044229848394613922B46FEF76E
:1020300083FB1AA8169C04700090019591480290A9
:10204000914839462A462B46FEF776FB1DA91CAA65
:1020500018921498129100F007FE8A480290062008
:10206000179001901AA80090B022874815992B4626
:10207000FEF70EFA1EA805700090019581480290A7
:102080008148394622462B46FEF756FB1EA80670AD
:10209000009001957B4C02944F227B4839462B4699
:1020A000FEF74AFB1EA82C211191017000900195AA
:1020B00002944E22744839462B46FEF73DFB1EA87B
:1020C00006700090019502946F4804463946169AAE
:1020D0002B46FEF731FB1EA8B4210170009001953C
:1020E00068480290B622204639462B46FEF724FB6C
:1020F00018980078189000280E9701D00C2018909E
:102100001298017832460AE001258540E0081AACB1
:10211000265CAE4326545E1C302E00D1CCE0D3B2F8
:102120005C1A634263411898B042199C00D81C465F
:102130003346012C09D11798034001249C40F30831
:102140001AADEF5CA743EF5408E017980340F4087A
:102150001AAD2C5DDC40E30700D0521CD3B25B1AF1
:102160005C425C41731C18989842199D00D8254622
:1021700007241C40002D07D00125A540F4081AAF04
:10218000385DA843385506E0F5081AAF7D5DE54097
:10219000EC0700D0521CD0B2401A444244415B1CB0
:1021A00018989842199D00D82546B41CE008002DC7
:1021B00008D0179D2C400125A5401AAC275CAF43E1
:1021C000275407E0179D2C401AAD285CE040C0075B
:1021D00000D0521CD0B2401A444244415B1C1898B3
:1021E0009842199D00D82546F41C07202040002D58
:1021F00007D001258540E0081AAC275CAF4327547F
:1022000006E0E4081AAD2C5DC440E00700D0521C83
:10221000D0B2401A444244415B1C18989842199D20
:1022200000D82546341DE008002D08D0179D2C400D
:102230000125A5401AAC275CAF43275407E0179D42
:102240002C401AAD285CE040C00700D0521C0D4F56
:10225000D0B2401A444244415B1C18989842199DE0
:1022600000D82546741D07202040002D00D04BE7E4
:10227000E4081AAD2C5DC440E00700D14BE7521CC6
:1022800049E7C046FFFF00002000002010000020AA
:102290000A49445F72656769737465723D25640A13
:1022A000000000000A73746F705F7661726961628A
:1022B0006C653D25640A00000297179801901AA8E2
:1022C0000090FC4CB022012520460E9E31462B4644
:1022D000FEF732FA1EA8057000A9A1C120463146BA
:1022E000169A2B46FEF728FA1EA80022027000A9B3
:1022F000A1C12046314614462B46FEF71DFA1EA802
:102300000470199400A9A1C1EA483146169A2B46D7
:10231000FEF712FA1EA8047000A9A1C109221292A8
:10232000E44831462B46FEF707FA1EA8047000A9C0
:10233000A1C11022DF4831462B46FEF7FDF91EA849
:10234000047000A9A1C11122DA48044631462B4687
:10235000FEF7F2F91EA8057000A9A1C124222046AB
:1023600031462B46FEF7E8F91EA8169C047000A91A
:10237000A1C125220B92CF4831462B46FEF7DCF94E
:102380001EA81999017000A9A1C17522C94831463A
:102390002B46FEF7D1F91EA8057000A9A1C1C548BA
:1023A000314622462B46FEF7C7F91EA81199017047
:1023B00000A9A1C14E22BF4831462B46FEF7BCF909
:1023C0001EA8199C047000A9A1C148220D92B94809
:1023D00031462B46FEF7B0F91EA82021119101705D
:1023E00000A9A1C130220F92B24831462B46FEF718
:1023F000A3F91EA8047000A9A1C1AE483146169ADF
:102400002B46FEF799F91EA81299017000A9A1C1E7
:10241000A84831460F9A2B46FEF78EF91EA8047085
:1024200000A9A1C15422A34C204631462B46FEF7F9
:1024300083F91EA804211891017000A9A1C13122BD
:102440000C92204631462B46FEF776F91EA8032152
:102450000A91017000A9A1C1322209922046314699
:102460002B46FEF769F91EA88321017000A9A1C1BE
:1024700040221092204631462B46FEF75DF91EA8F9
:102480000B99017000A9A1C146220892204631464D
:102490002B46FEF751F91EA8199C047000A9A1C192
:1024A0006022844831462B46FEF746F91EA8047088
:1024B00000A9A1C127227F4831462B46FEF73CF9EF
:1024C0001EA81799017000A9A1C150227948314670
:1024D0002B46FEF731F91EA8047000A9A1C15122B4
:1024E000744831462B46FEF727F91EA89621017045
:1024F00000A9A1C152226F4831462B46FEF71CF9B4
:102500001EA808210B91017000A9A1C1562269489B
:1025100031462B46FEF710F91EA80F99017000A94D
:10252000A1C15722634831462B46FEF705F91EA884
:10253000047000A9A1C161225E4831462B46FEF716
:10254000FBF81EA8047000A9A1C1622259483146B7
:102550002B46FEF7F1F81EA8047000A9A1C1642261
:10256000544831462B46FEF7E7F81EA8047000A930
:10257000A1C165224F48044631462B46FEF7DCF8E0
:102580001EA8A021017000A9A1C1662220463146E3
:102590002B46FEF7D1F81EA8057000A9A1C1204660
:1025A0003146169C22462B46FEF7C6F81EA809990E
:1025B000017000A9A1C122223E4831462B46FEF7F8
:1025C000BBF81EA81421017000A9A1C147220992DD
:1025D000384831462B46FEF7AFF81EA8047000A914
:1025E000A1C14922334831462B46FEF7A5F81EA863
:1025F000199C047000A9A1C14A222E4831462B46DD
:10260000FEF79AF81EA8047000A9A1C1294C204623
:102610003146169A2B46FEF78FF81EA80A210F9115
:10262000017000A9A1C17A22204631462B46FEF74F
:1026300083F81EA8199C047000A9A1C17B221D4823
:1026400031462B46FEF778F81EA82121017000A91B
:10265000A1C17822174831462B46FEF76DF81EA817
:10266000057000A9A1C113483146169A2B46FEF702
:1026700063F81EA834210591017000A9A1C123228D
:102680000C4831462B46FEF757F81EA8047000A9E7
:10269000A1C142220748044631462B46FEF74CF8BA
:1026A0001EA81699017000A9A1C120463146139AAF
:1026B0002B4601E020000020FEF73EF81EA8262150
:1026C000017000A9A1C145220792204631462B4640
:1026D000FEF732F81EA805210691017000A9A1C1DC
:1026E00020463146089A2B46FEF726F81EA8109A77
:1026F000027000A9A1C12046314614462B46FEF7C0
:102700001BF81EA81799017000A9A1C10E22E64866
:1027100031462B46FEF710F81EA81A21017000A9B9
:10272000A1C1E1483146119A2B46FEF705F81EA8D3
:10273000047000A9A1C14322DB48044631462B4660
:10274000FDF7FAFF1EA81999017000A9A1C1204642
:102750003146169C22462B46FDF7EEFF1EA80A992D
:10276000017000A9A1C1D0483146059A2B46FDF75A
:10277000E3FF1EA81399017000A9A1C13522CA4820
:1027800031462B46FDF7D8FF1EA8057000A9A1C150
:10279000C548314622462B46FDF7CEFF1EA8189CA1
:1027A000047000A9A1C1C04831460C9A2B46FDF720
:1027B000C3FF1EA81299017000A9A1C14B22BA48FB
:1027C00031462B46FDF7B8FF1EA80699017000A9F7
:1027D000A1C14C22B44831462B46FDF7ADFF1EA8DF
:1027E000047000A9A1C14D22AF4831462B46FDF728
:1027F000A3FF1EA8199C047000A9A1C1AA483146D4
:10280000169A2B46FDF798FF1EA8047000A9A1C1D7
:10281000A54C20463146139A2B46FDF78DFF1EA886
:102820001199017000A9A1C120463146079A2B4693
:10283000FDF782FF1EA80B99017000A9A1C12046D7
:102840003146099A2B46FDF777FF1EA82821017013
:1028500000A9A1C1204631460D9A2B46FDF76CFF19
:102860001EA8199C047000A9A1C16722F84831462E
:102870002B46FDF761FF1EA81899017000A9A1C1A0
:102880007022F34831462B46FDF756FF1EA805700F
:1028900000A9A1C17122EE4831462B46FDF74CFF3D
:1028A0001EA8FE21017000A9A1C17222E84831468C
:1028B0002B46FDF741FF1EA8047000A9A1C1762296
:1028C000E34831462B46FDF737FF1EA8047000A9E8
:1028D000A1C17722DE48044631462B46FDF72CFF86
:1028E0001EA8057000A9A1C120463146169C2246AB
:1028F0002B46FDF721FF1EA8057000A9A1C10D22DE
:10290000D34831462B46FDF717FF1EA819990170D1
:1029100000A9A1C1CE48314622462B46FDF70CFF47
:102920001EA8057000A9A1C180221792C84C20469C
:1029300031462B46FDF700FF1EA8F821017000A9C3
:10294000A1C1204631462A462B46FDF7F5FE1EA8BA
:10295000057000A9A1C120463146169A2B46FDF705
:10296000EBFE1EA8057000A9A1C18E2220463146AB
:102970002B46FDF7E1FE1EA8057000A9A1C1204667
:102980003146199C22462B46FDF7D6FE1EA8047040
:1029900000A9A1C1AE483146169A2B46FDF7CCFEE0
:1029A0001EA8047000A9A1C1A94804463146179A7F
:1029B0002B46FDF7C1FE1EA81899017000A9A1C100
:1029C000204631460F9A2B46FDF7B6FE1EAC1998ED
:1029D000207000A8B0C0842218929D4815992B46FB
:1029E000FDF756FD2078EF2101401EA8017000A9D7
:1029F000A1C1974C20463146189A2B46FDF79CFE04
:102A00001EA8057000A9A1C10B22204631462B4605
:102A1000FDF792FE149C204600F048F8914988602A
:102A20001EA8E8211891017000A9A1C1884831466B
:102A30002A462B46FDF780FE8A488168204600F032
:102A4000AFFB1EA8057000A9A1C1814831462A46E6
:102A50002B46FDF771FE2046109900F03DFA002844
:102A60001DD01EA80499017000A9A1C17848314663
:102A70002A462B46FDF760FE00212046199100F002
:102A80002BFA00280BD01EA81899017000A9A1C12B
:102A90006F4831462A462B46FDF74EFE1995199D83
:102AA00028461FB0F0BDC04620000020F0B591B010
:102AB0000BAE0027377065490124009601940291FE
:102AC0004000451C6248294622462346FDF7E0FCAB
:102AD00030780A900CA8077000900194FC4E029682
:102AE0005022FC4829462346FDF7D2FC0C9807905B
:102AF0000DA8077000A951C14622F6482946234671
:102B0000FDF7C6FC0D9808900296022006900190F1
:102B10000EAE00965122EF4829462346FDF7B8FC39
:102B200070780990307805900FAE37700096019458
:102B3000E74F02977022E74829462346FDF7A8FC95
:102B40003078049002970698019010AF0097712298
:102B5000E04829462346FDF79BFC07984000801C6F
:102B6000C0B23C4948437D218D004019001FCE0072
:102B70003146FDF7BDFA0899491CC9B20690414398
:102B800048193146FDF7B4FAC2B20A99C906079648
:102B9000039202D53049511800E030490891099A52
:102BA00040260A990E40059B9A4009923B787A7814
:102BB0000F07059309D44807049F10D503982818D8
:102BC00008994118A031089109E02B460A334000CA
:102BD000184008994018224BC0180890049F099883
:102BE000401C002E099000D0241A05988240A0189D
:102BF000C4B27800801CC0B216494143281F084364
:102C0000079F3946FDF774FA604340193946FDF7CE
:102C10006FFA04460998C0B20699484340193946EC
:102C2000FDF766FA002E02D0C0B22E18A0360A9820
:102C3000089940B2002803DAE0B228188619323623
:102C40007018D949886011B0F0BDC046FFFF000080
:102C500020000020002F3A00840D0000360B0000F9
:102C60006405000010000020F0B58DB008920791B7
:102C70000CA901240C70FA4A0091019402921746A3
:102C80004500F84E80220992304629462346FDF73A
:102C900053FD0CA8047000A991C1FF2730462946B6
:102CA0003A4604972346FDF747FD0CA80022027020
:102CB00000900194EA4802903046294616460A924E
:102CC0002346FDF739FD0CA80621069101700090FE
:102CD0000194E3480290E34829463A462346FDF72B
:102CE0002BFD0CA8067000900194DD480290691C31
:102CF0008326DC4807460B91324605962346FDF7AE
:102D0000C7FB04200C9901430CA8017000900194AA
:102D1000D34802903846294632462346FDF70CFD3B
:102D20000CA80721017000900194CD4E0296384600
:102D30002946049A2346FDF7FFFC0CA8047000A95D
:102D400051C18122384629462346FDF7F5FC0CA8DF
:102D5000047000A951C138462946099A2346FDF757
:102D6000EBFC0CA86B21017000A951C137469422DD
:102D7000BC4829462346FDF7DFFC0CA80A990E46FD
:102D8000017000A991C1B748074609952946059ADF
:102D90002346FDF7D1FC0CAD2E7000950194B04890
:102DA0000290832238460B992346FDF771FB287861
:102DB0000028F0D00CA8047000900194F54802900F
:102DC000F54883220592099F39462346FDF7B4FC56
:102DD0000CAD2E7000950194EE4802909222EE48C0
:102DE0000B992346FDF754FB28787F210140079A71
:102DF0001170C009089908700CA806700090019421
:102E0000E44802908122E44D284639462346FDF7E6
:102E100093FC0CA80699017000900194DD48029083
:102E2000FF220892284639462346FDF785FC0CAD63
:102E30002E7000950194D7480290D7480B99059EB3
:102E400032462346FDF724FB2878FB2101400CA8DD
:102E5000017000900194CF4D0295CF48394632461B
:102E60002346FDF769FC0CA8047000A931C1CA48CB
:102E700006463946089D2A462346FDF75DFC0CA808
:102E8000047000900194C3480290304639460A9E6F
:102E900032462346FDF750FC0CA8067000900194C2
:102EA000BC480290BC4839462A462346FDF744FCFC
:102EB0000CA8067000900194B64802908022B64893
:102EC00039462346FDF738FC20460DB0F0BDC0461C
:102ED000FFFF000020000020F0B58BB0012421434B
:102EE00007AA1170AB49009201940291410006912A
:102EF000A94800273A462346FDF71EFC00F006FBD2
:102F0000A64DA88008AE0597377000960194A14899
:102F100002900698471C13229F4839460494234682
:102F2000FDF7B6FA307840071CD009A8049F077057
:102F300000900197974D0295974E0B223046069CC4
:102F400021463B46FDF7F8FB0AA8059A027000905F
:102F500001970295304621463B46FDF7EDFB38468A
:102F60000BB0F0BD8C4C0FE008AE00203070012398
:102F70000096019387480290132220463946FDF7B8
:102F800087FA30784007D0D1E8880028ECD000F0EC
:102F9000BDFAA988401A80B2E9888842E4D9059F21
:102FA00038460BB0F0BDC04610000020F0B589B027
:102FB000064600F0ABFA794FB88006AD00200590C8
:102FC00028707448012400950194029070000490C8
:102FD000461CFD48132231462346FDF759FA28784E
:102FE0000FE03D4606AF0598387000970194F5480C
:102FF00002901322F44831462346FDF749FA387807
:103000002F4640070FD1F8880028EAD000F07EFA5A
:10301000B988401A80B2F9888842E2D9BC70F74872
:1030200080B209B0F0BDF54D02950220019007AFC6
:103030000097E5481E2231462346FDF729FA7E789F
:10304000079F08A8047000A931C10B22DE4804992B
:103050002346FDF771FB3802801980B209B0F0BD3C
:10306000FFFF000020000020F0B58FB006A9012668
:103070000E70E24A009101960292144603904500B8
:10308000D14F80220592384629463346FDF754FB3E
:1030900007A80670009001960294FF220492384619
:1030A00029463346FDF748FB08A800270770009023
:1030B00001960294C44829463A463346FDF73CFB44
:1030C000C648407809A9087000910196029491229F
:1030D000BD4829463346FDF72FFB0AA8067000902D
:1030E00001960294B84829463A463346FDF724FB38
:1030F0000BA80770009001960294B3482946049AE1
:103100003346FDF719FB0CA8077000900196029456
:10311000AD482946059A3346FDF70EFB0DA806700B
:10312000009001960294A84829463A463346FDF796
:1031300003FB00F0EBF9A94988800EAC27700094DE
:103140000196AE4802906D1C05E00EAC277000940D
:103150000196AA4802909C4829463A463346FDF714
:1031600097F92078C0070FD09C4CE0880028ECD05D
:1031700000F0CCF9A188401A80B2E1888842E4D9F5
:10318000A6709E480FB0F0BD0398FFF70FFF0FB079
:10319000F0BDC046FFFF000020000020100000200E
:1031A000F0B595B006910EAF00263E70934901250B
:1031B00000970195029140000490441C82482146EA
:1031C0002A462B46FDF764F938780C900FA80D9627
:1031D000067000900195894F029750227A48214647
:1031E0002B46FDF755F90F980A9010A8067000A914
:1031F000A1C14622744821462B46FDF749F9109893
:103200000B9002970227019711AE009651226E484B
:1032100021462B46FDF73CF97078099030780890EC
:1032200012A80D99017000900195744E02967022BB
:10323000654821462B46FDF72BF91298059002961A
:10324000039701970C9F13A8009071225E482146B6
:1032500007952B46FDF71CF90A984000801CC0B268
:103260005A4948437D218C000019001F0A91CD0066
:103270002946FCF73DFF0646099808998840401CFE
:10328000C1B230460891484300192946FCF730FF87
:1032900009900B98401CC0B2704300190B95294649
:1032A000FCF726FFC2B2F9060BD5494951183B0776
:1032B0000AD522460A3240001040401846494118BB
:1032C00009E044493B07F4D4780704D501204002C3
:1032D00010184118943178B200280D9802D407983C
:1032E00015B0F0BD4022174001256E02002F0AD014
:1032F000099AD2B20B9BD218D232531806998B423C
:1033000007D915B0F0BD32462632531806998B42C4
:10331000F7D809960D950A4605984100891C0C9727
:10332000D71AC8B2294E4643264330460B9D29463C
:10333000FCF7DEFE05906F430A9801013046FCF76A
:10334000D7FE38180599FCF7D3FE0C99002901D057
:103350000899401800280B9F0D9D099E06D0401E1D
:10336000F43CA04208D20022244C16E00020034680
:10337000224C0499039E14E0002102461F4CB242E5
:1033800007D3891C90083B4618339A420246F6D26E
:1033900001E02943500889B20A020499039E0243BE
:1033A000130A14AA507013700092019602940648F2
:1033B00071220123FDF7C0F908480699816007983A
:1033C00015B0F0BDFFFF000020000020002F3A00E4
:1033D000840D0000360B0000640500001000002082
:1033E00080B582B00190044801A90122034BFEF789
:1033F0004FF9019802B080BD74000020FFFF00006B
:1034000092B0FDF725FB00250B950A9509950895C7
:103410000795069501267002FDF788FB700711904D
:103420007004109008200F900E9502240D940C94B7
:1034300040200A90099530020890059405A8FDF7F0
:10344000C7FD002803D0EFF3108072B6FEE70495A5
:10345000039507200190029401A82146FDF764FC22
:10346000002803D0EFF3108072B6FEE7FEF7C2FA31
:10347000FEF7ECFAFEF716FB154D04210124284651
:103480002246FCF75FFF102100222846FCF75AFF76
:10349000C820FCF763FE0FA000F03EF8292021466B
:1034A000FEF7F6FC00280ED00B4D0CA42920FFF7E8
:1034B000DBFD01462880204600F02EF87D20C0006C
:1034C000FCF74CFEF2E707A000F026F8FEE7C04646
:1034D00000040050313233001C0000204C3D2564B4
:1034E000000000004661696C656420746F206465AB
:1034F0007465637420616E6420696E697469616CBF
:10350000697A652073656E736F72210001480068E7
:103510007047C046080100200FB410B503A9044B42
:10352000044A029800F018F810BC08BC04B0184710
:10353000E13300080000002002E008C8121F08C1A3
:10354000002AFAD170477047002001E001C1121F24
:10355000002AFBD170470000FFB58DB0044600255E
:1035600006E025280AD0109A0F999047641C6D1C1C
:1035700020780028F5D1284611B0F0BD00270121A0
:10358000484A009700E00743641C23780846203B24
:1035900098401042F7D120782E2817D104200743F5
:1035A0006078641C2A280CD10E98641C02C8009113
:1035B0000E900BE000990A22514330394018641CE8
:1035C00000902078014630390929F3D92078002865
:1035D000D1D0642808D0692806D075281ED0109A4A
:1035E0000F9990476D1C5BE00A200E99019001C96C
:1035F0000E91002802DA40422D2102E0390504D55F
:103600002B216A461172012103E0F90704D0202121
:10361000F7E70BAE0B910DE00021FAE70A200E99B7
:10362000019001C90E91F7E70199FCF761FD303176
:10363000761E31700028F7D103A8801B203001903E
:10364000780701D5009801E0012000900199884297
:1036500001DD401A00E000200027009006E002A8EB
:10366000109AC05D0F9990476D1C7F1C0B98874284
:10367000F5DB04E0109A30200F9990476D1C0099FB
:10368000481E00900029F5DC05E03078109A761C81
:103690000F9990476D1C0199481E01900029F4DC98
:1036A000641C65E70928010000000000000000001C
:1036B000000000000000000000000000000000000A
:1036C00000000000000000000100000002000000F7
:1036D00003000000040000000600000007000000D6
:1036E00008000000090000000000000000000000C9
:1036F00000000000000000000100000002000000C7
:1037000003000000040000000100020004000600A5
:1037100008000A000C00100020004000800000019A
:10372000010101030701000008040204080101016E
:103730005037000800000020100000003835000855
:103740006037000810000020000500004835000820
:103750000000000001000000040000000024F4004C
:04000005080000C12E
:00000001FF
