:020000040800F2
:1000000098080020450100089F0D0008DB0C00083F
:100010009D0D0008E5020008090F0008000000001F
:10002000000000000000000000000000A30D000818
:10003000E702000800000000A10D0008A50D00085F
:100040005F0100085F0100085F0100085F01000810
:100050005F0100085F0100085F0100085F01000800
:100060005F0100085F0100085F0100085F010008F0
:100070005F0100085F0100085F0100085F010008E0
:100080005F0100085F0100085F0100085F010008D0
:100090005F0100085F0100085F0100085F010008C0
:1000A0005F0100085F0100085F0100085F010008B0
:1000B0005F0100085F0100085F0100085F010008A0
:1000C0005F0100085F0100085F0100085F01000890
:1000D0005F0100085F0100085F0100085F01000880
:1000E0005F0100085F0100085F0100085F01000870
:1000F0005F0100085F0100085F0100085F01000860
:100100005F0100085F0100085F0100085F0100084F
:100110005F0100085F0100085F0100085F0100083F
:100120005F0100085F0100085F0100085F0100082F
:10013000DFF80CD000F086F800480047313E000898
:10014000980800200648804706480047FEE7FEE77B
:10015000FEE7FEE7FEE7FEE7FEE7FEE7FEE7FEE777
:10016000EB0D000831010008202A04DB203A21FAB7
:1001700002F00021704721FA02F3D040C2F12002C0
:10018000914008431946704740EA01039B0703D09A
:1001900009E008C9121F08C0042AFAD203E011F8C6
:1001A000013B00F8013B521EF9D27047D2B201E088
:1001B00000F8012B491EFBD270470022F6E710B56C
:1001C00013460A4604461946FFF7F0FF204610BDC5
:1001D000034611F8012B00F8012B002AF9D118462B
:1001E00070472DE9F05F0546002092469B46884601
:1001F0000646814640241BE02846414647462246A3
:10020000FFF7B2FF53465A46C01A914110D3114628
:100210001846224600F028F82D1A67EB01084F46D1
:1002200022460120002100F01FF817EB00094E4183
:10023000201EA4F10104DFDC484631462A4643462D
:10024000BDE8F09F064C074D06E0E06840F0010372
:1002500094E8070098471034AC42F6D3FFF76CFFE0
:100260003C4100085C410008202A04DB203A00FAE7
:1002700002F1002070479140C2F1200320FA03F3FD
:1002800019439040704770B58D1810F8014B14F069
:10029000030201D110F8012B231106D110F8013B04
:1002A00003E010F8016B01F8016B521EF9D1ABB1FC
:1002B00010F8012B04F00C048A1A0C2C03D0A2EBCA
:1002C00084129B1C08E010F8014BA2EB0422F8E713
:1002D00012F8014B01F8014B5B1EF9D5A942D4D3AA
:1002E000002070BDFEE770477047000070B50446FF
:1002F00000F010F90546601C02D004480078044460
:1003000000F008F9401BA042FAD370BD04000020A1
:100310002DE9F84FDFF8C891002409F1040A0AF129
:10032000040B23460F270BF1040ED1E00125A54055
:1003300006EA0502AA4276D1DFF8A8C14E68A6EB0C
:100340000C0866452BD00DDC032E34D005DC36B30B
:10035000012E19D0022E2FD11BE0112E16D0122EF5
:100360002AD119E0B8F5881F19D006DCB8F5803F0E
:1003700015D0B8F5801F1FD111E0B8F5001F0ED0C1
:10038000B8F5041F18D10AE0CB6815E0CB681B1D37
:1003900012E0CB6808330FE0CB680C330CE08B68BD
:1003A0002BB1012B4FF0080303D0456104E0042377
:1003B00002E0056100E00023FF2A01D8064601E0C3
:1003C00000F104064FEA840501D9A5F12005D6F80D
:1003D000008007FA05FC28EA0C0803FA05F548EA4C
:1003E0000508C6F800804D68ED0070D53E4DAE6939
:1003F00046F00106AE61AD6924F0030605F0010583
:1004000000953A4D06EB050CDCF80850A607360FB0
:1004100007FA06F825EA0805DFF8D480404503D13D
:100420004FF0000825E052E0DFF8C880404502D1D7
:100430004FF001081DE0DFF8C080404502D14FF0C9
:10044000020816E0DFF8B480404502D14FF00308FF
:100450000FE0DFF8AC80404502D14FF0040808E01F
:10046000DFF8A080404502D14FF0050801E04FF0D1
:10047000060808FA06F848EA0508CCF808804D682E
:10048000D9F80060ED034D4601D5164300E09643D0
:100490002E604D68DAF80060AD03554601D516436D
:1004A00000E096432E604D68DBF80060ED025D468B
:1004B00001D5164300E096432E604D68DEF80060DB
:1004C000AD02754601D5164300E096432E60641CCC
:1004D0000A681646E2407FF429AFBDE8F88F0000B5
:1004E0000004014000001110001002400000014013
:1004F00000080140000C01400010014000140140C0
:1005000000180140001C01400AB101617047090454
:10051000FBE70000014880687047000004000020ED
:10052000024881680278114481607047040000200D
:10053000074810B5016841F010010160032000F088
:1005400067F8002000F006F800F024F8002010BD45
:100550000020024070B50D4D04464FF47A712878A2
:10056000B1FBF0F00A490968B1FBF0F000F0DEFAE7
:1005700048B9102C07D200222146501E00F028F85E
:1005800000206C6070BD012070BD000004000020E0
:10059000100000200C4808B5816941F0010181611B
:1005A000816901F001010091C16941F08051C1618F
:1005B000C06900F0805000900448416821F0E0617B
:1005C00041F08061416008BD001002400000014020
:1005D000F0B40E4B1B680C46C3F30223C3F10705AE
:1005E000042D00D90425191D072901D2002300E09C
:1005F000DB1E012606FA05F1491E214099409E4066
:10060000761E16403143F0BC03F076B80CED00E0E6
:10061000064900F0070208684FF6FF03184040EA59
:100620000220034A10430860704700000CED00E010
:100630000000FA052DE9F0470F46050061D0434E52
:10064000306800F00700B84209D2306820F0070097
:1006500038433060306800F00700B84251D1286854
:100660003B4C810712D5400703D5606840F4E06039
:1006700060602878000703D5606840F460506060CF
:100680006068A96820F0F000084360602878C0071F
:1006900028D06868012810D02168022810D0890766
:1006A00000292EDA616821F0030101436160FFF740
:1006B00031FF804641F288390DE021688903EFE778
:1006C0008901EDE7FFF726FFA0EB0801494502D9B4
:1006D0000320BDE8F0876068696800F00C00B0EBAB
:1006E000810FEFD1306800F00700B8420BD93068B5
:1006F00020F0070038433060306800F00700B8424F
:1007000001D00120E5E72878400705D56068E96851
:1007100020F4E060084360602878000706D5606830
:10072000296920F4605040EAC100606000F038F8A8
:100730006168084AC1F30311515CC840064908606A
:1007400006480068FFF706FF0020C2E700200240CD
:100750000010024024410008100000200800002082
:100760000448054900684968044AC1F30221515C04
:10077000C8407047100000200010024034410008BB
:100780000448054900684968044AC1F3C221515C24
:10079000C84070471000002000100240344100089B
:1007A00012A185B00FC98DE80F0014A0144A00688B
:1007B00004905168134801F00C03042B10D0082B4F
:1007C0000ED1C1F38343C9031DF803000AD5516854
:1007D00004AAC1F34041515C0A4A5043B0FBF1F016
:1007E00005B0704708494843FAE7000002030405D2
:1007F000060708090A0B0C0D0E0F1010010200006D
:100800000010024000127A0000093D002DE9F84F67
:10081000040070D02078C04DC00749D06868C0F38C
:100820008100012807D06868C0F38100022809D13F
:100830006868C00306D52868800339D56068002839
:10084000E7D035E06068B0F5803F0BD010B1B0F56F
:10085000A02F11D0286820F480302860286820F468
:10086000802002E0286840F480302860606890B101
:10087000FFF750FE06460AE0286840F48020286012
:10088000F0E700BFFFF746FE801B642873D8286896
:100890008003F7D50CE0FFF73DFE064605E000BFFC
:1008A000FFF738FE801B6428F0D828688003F7D44F
:1008B00020789A4E80074FF001094FF0000839D593
:1008C000686810F00C0F07D06868C0F38100022838
:1008D00009D16868C00306D42868800714D5206948
:1008E000012808D110E02069B0B1C6F80090FFF7E8
:1008F00011FE074605E00AE1FFF70CFEC01B0228C7
:10090000C4D828688007F7D52868616920F0F80006
:1009100040EAC10028600DE0C6F80080FFF7FAFD4C
:10092000074604E0FFF7F6FDC01B022823D828681D
:100930008007F7D4207800072CD57948A169D9B170
:10094000C0F80090FFF7E6FD074604E0FFF7E2FD80
:10095000C01B02280FD8686A8007F7D571484FF48A
:10096000FA510068B0FBF1F0009000BF0098411E02
:100970000091FAD20EE080E0C0F80080FFF7CAFDD7
:10098000074604E0FFF7C6FDC01B022875D8686A59
:100990008007F7D42078400760D5E8690027C000B9
:1009A00008D4E86940F08050E861E869012700F068
:1009B000805000905C480168C90513D401688346E3
:1009C00041F480710160FFF7A5FD824606E000BF9B
:1009D000FFF7A0FDA0EB0A0064284ED8DBF800006A
:1009E000C005F5D5E06801280AD008B1052813D064
:1009F000286A20F001002862286A20F0040002E042
:100A0000286A40F001002862E06841F2883B98B112
:100A1000FFF780FD82460BE0286A40F00400286260
:100A2000EEE700BFFFF776FDA0EB0A0159455AD863
:100A3000286A8007F6D50CE0FFF76CFD824605E0DA
:100A4000FFF768FDA0EB0A0159454CD8286A8007DA
:100A5000F6D41FB1E86920F08050E861E06988B3FE
:100A60006968C1F38101022944D00228C6F8608078
:100A700004D0FFF74FFD044638E034E0FFF74AFDAD
:100A8000074604E0FFF746FDC01B02282BD8286864
:100A90008001F7D4206AB0F5803F05D16868A1686D
:100AA00020F4003008436860D4E90801084369680D
:100AB00021F4741108436860C6F86090FFF72AFDBE
:100AC000044606E025E000BFFFF724FD001B0228D6
:100AD00009D828688001F7D51BE000BFFFF71AFD91
:100AE000001B022802D90320BDE8F88F2868800186
:100AF000F4D40EE00128F7D06868226A00F480314F
:100B0000914204D1616A00F47010884201D0012042
:100B1000EAE70020E8E7000000100240000042423F
:100B200080044242100000200070004010B5401EBA
:100B3000B0F1807F01D3012010BD4FF0E02460614F
:100B40000F21601702F0D8FD0020A061072020616E
:100B5000002010BD70B5040004D094F839000025C1
:100B600010B106E0012070BD84F83850204600F036
:100B700023F8242084F839002068C16821F400514A
:100B8000C160204600F032F92068016921F49041EB
:100B900001612068416921F02A0141612068C16832
:100BA00041F40051C160E563202084F8390084F8E5
:100BB0003A00002070BD000030B585B000240094DC
:100BC00001940294039400681449884224D1144883
:100BD000816941F480418161816901F4804104911E
:100BE000816941F00401816180690E4D00F00400CB
:100BF00004904FF4007000900220019003200390B5
:100C000069462846FFF784FB2815CDE900046946AC
:100C100028460294FFF77CFB05B030BD0038014048
:100C200000100240000801402DE9F843044690F806
:100C300039001F4616460D4620284CD1C5B1BEB11D
:100C400094F83800012846D0012084F838004FF08D
:100C50000008C4F83C80212084F83900FFF75AFCD2
:100C6000A6848146E684A068B0F5805F03D004E0E6
:100C70000120BDE8F883206928B12E465FF0000509
:100C800084F838800EE00026FAE78021204600F044
:100C900009F9A0B9AEB116F8010B21684860E08CE3
:100CA000401EE084E08C4B464FF000020097002885
:100CB000EBD14FF04001204600F0F4F830B10320B2
:100CC000D7E735F8020BC0F30800E6E7202084F8E8
:100CD00039000020CDE70220CBE7FEE72DE9F04107
:100CE00086B000241C480094019402940394816906
:100CF00041F004018161816901F00401049181697D
:100D000041F0080181618069012200F00800134F61
:100D1000D503049029463846FFF7F6FBDFF84080FC
:100D20000122C0214046FFF7EFFB00950226012576
:100D30000396CDE9015469463846FFF7E9FAC02029
:100D4000CDE90005CDE9024669464046FFF7E0FAE5
:100D500006B0BDE8F081000000100240000801402C
:100D6000000C01400C4810B50A4901604FF4E13114
:100D70004160002181600C22C160C0E904128161E0
:100D8000C161FFF7E7FE002803D0BDE81040FFF780
:100D9000ABBA10BD0038014054040020FEE7704794
:100DA00070477047FFF7BCBB10B590B0282168466C
:100DB000FFF703FA14210AA8FFF7FFF902200090B9
:100DC0000120049010200024059007946846FFF746
:100DD0001DFD0F20CDE90A040C940D9400210AA8F2
:100DE0000E94FFF727FC10B010BD704770B5044695
:100DF00000680169E26821F44051114301612169F1
:100E0000A0680843616908432168CA6841F20C631D
:100E10009A430243CA6020684169A26921F4407183
:100E2000114341611E492068884202D1FFF7A8FCA6
:100E300001E0FFF795FC00EBC00101EB00126068D8
:100E400064218000B2FBF0F3B3FBF1F36FF01806FE
:100E50007343B2FBF0F5B2FBF0F605EB83053223EA
:100E600003EB0515B5FBF1F5B6FBF1F605F0F00562
:100E700005EB0615B2FBF0F6B2FBF0F0B0FBF1F0BB
:100E80006FF01802504306EB800003EB0010B0FB3C
:100E9000F1F0216800F00F002844886070BD000068
:100EA000003801402DE9F041984617460E460446A9
:100EB000069D1DE0681C1BD02DB1FFF72BFBA0EB9E
:100EC0000800A84214D92068C16821F4D071C1601B
:100ED0002068416921F001014161202084F8390036
:100EE00084F83A00002084F838000320BDE8F0813F
:100EF0002068006836EA000004D00020B842D9D04B
:100F00000020F3E70120F9E7FEE700007CB5044686
:100F1000002094F8DA200D46012A03D0022A01D0DD
:100F2000032A14D101AB6A460121204600F091F951
:100F3000009A4FF47F018A4202D8019A8A4206D968
:100F4000002804D125B10F49204601F0B1FD7CBD38
:100F50000422FF21204600F020FE054600227021D9
:100F6000204600F01AFE05430022FF21204600F033
:100F700014FE054300228021204600F00EFE284387
:100F80007CBD000007010020F8B5064600240122C0
:100F90000B21304600F001FE074600220B213046AF
:100FA00000F0FBFD40EA07056A461321304600F0D9
:100FB0000BFB641C9DF800102843E4B2490704D0E1
:100FC000032C04D20028E2D0F8BD032CFCD36FF030
:100FD0000B00F8BDF0B591B004460022882100F066
:100FE000DCFD002584F8F0504FF47A70A4F852012B
:100FF0004FF4C870A4F854015748C4F85801574832
:101000002562C4F8D4006946204600F0A9F806001D
:1010100009D18DF800508DF801504022694604F145
:101020001000FFF7B1F86420A4F834014FF46170A8
:10103000A4F836014FF4FA70A4F838014FF4206098
:10104000A4F83C01012784F850713A4680212046DB
:1010500000F0A3FD06430122FF21204600F09DFD84
:10106000064300221146204600F097FD064310AAD1
:101070009121204600F0A8FA06439DF8400084F82C
:101080003A0101220021204600F087FD064300229C
:10109000FF21204600F081FD0643002280212046EA
:1010A00000F07BFD30430026002852D1B1B201226E
:1010B000204600F06BFB761C062EF5DB002848D19D
:1010C00000220221204600F061FB002841D10022CD
:1010D0000321204600F05AFB00283AD100220421C7
:1010E000204600F053FB002833D100220521204682
:1010F00000F04CFB00282CD14FF490120021204628
:1011000000F085FB002824D14FF4804201212046C5
:1011100000F07DFB00281CD14FF40C120221204668
:1011200000F075FB002814D100220321204600F0B6
:101130006EFB00280DD1FF2084F83001024601210A
:10114000204600F02AFD84F83271002801D184F88D
:10115000155111B0F0BD0000856B0100A4700900AD
:1011600070B506460C46007C01F8080B304600F0CE
:1011700044F8002833D1207304F11001304600F008
:10118000DBF900282BD104F11401304600F0E4F81B
:10119000002824D1002501E0002820D104EB85029D
:1011A000A9B23046243200F07BF8002817D162192A
:1011B000A9B23046183200F066F86D1C062DEBDB44
:1011C00000280CD104F13C01304600F09AF90028C7
:1011D00005D1211D3046BDE8704000F0BBB870BDA0
:1011E00010B50C460A46092100F0EEF9002803D19B
:1011F000217801F00101217010BD3EB50C46054675
:1012000002AAF82100F0F6F900280ED16A4604215E
:10121000284600F0E4F9002807D1BDF8081029B1EC
:10122000009AB2FBF1F12160A9613EBD2168FBE7A4
:1012300038B50C466A46132100F0C6F99DF8001037
:1012400001F0070211F0180F226001D06FF00500C5
:1012500038BDF8B515461C4606466A460E2100F014
:10126000C9F9BDF800100905C9082960002809D18D
:101270006A460C21304600F0BDF9BDF800100905A2
:10128000C9082160F8BD03460020062902D3001FCB
:10129000002102E0194491F82810117070470000F5
:1012A000F8B504460020154606292ED2DFE801F0E5
:1012B0000305191B1D1D646B25E06A464421204669
:1012C00000F098F9002803D1BDF800104FEA41263C
:1012D00006D1EEB12E604FF00101A66384F829100B
:1012E000F8BDE46B0FE0246C0DE06A464FF064013A
:1012F000204600F07FF9002804D100BFBDF800109F
:101300004FEA4124ECD12C60F8BD6FF00300F8BD2A
:10131000A16B29604FF00001E0E77CB50C4690F826
:10132000DA100025012604290AD06A46142100F0AB
:101330004BF900280BD19DF80010C90706D007E033
:1013400001A9FFF775FF0199042901D025707CBD23
:1013500026707CBD01F0C2B801F022B901F03AB9A3
:10136000F0B58DB00C4605460C2302AA142100F0FE
:101370004CF906007ED10021A17521609DF8130073
:101380009DF81220616000EB02209DF80F209DF86F
:101390000E304FF47A7E02EB03221204D209E2608F
:1013A0009DF811309DF8106080B203EB06231B04FA
:1013B000DB0923619DF80B309DF80A6003EB0623DF
:1013C0009BB2A382B5F852619DF8087095F831C1BF
:1013D00076451FD0464306F5FA7696FBFEF02E8C36
:1013E00095F81CE080B2B6B2BEF1000F12D05E4399
:1013F000B2EB262F08D1BCF1000F02D042F2B82088
:1014000008E048F6E0200DE05043A2EB2626B0FBB2
:10141000F6F080B2BCF1000F04D081082181800178
:10142000E07501E02081E1750CA8CDE90040394666
:10143000284601F0F7F9060025D19DF83000207606
:1014400005F150011C220D4605A8FEF79DFE2089DE
:10145000ADF81C00E07D8DF82B006089ADF81E0012
:1014600060680690E068089020690990A08AADF84D
:10147000280000E007E0207E8DF82C001C2205A942
:101480002846FEF781FE0DB03046F0BD38B5054662
:1014900000200C468DF800006A460121284600F025
:1014A00093F800282AD123469DF8002000212846E1
:1014B00002F052FD002821D1A31C9DF8002001213B
:1014C000284602F049FD002818D1631C9DF8002031
:1014D0000221284602F040FD00280FD1E31C9DF8B0
:1014E00000200321284602F037FD002806D1231DE5
:1014F0009DF800200421284602F02EFD38BD01F0A1
:10150000A9BA38B50C4605466A46012100F05CF8D8
:1015100000280BD19DF8001085F83011090601D57F
:10152000012100E00021217085F84C1038BD0246F1
:101530000020127F0A70704738B50D4604466A468F
:10154000202100F057F8002807D1BDF8001029B17C
:10155000C900296021620121217738BD216A2960F3
:101560000021F9E7012301F04ABB01F068BB70B527
:10157000047C054614B900F0CBF910B9284601F0F7
:10158000E9FA50EA040102D1032185F8321170BD55
:1015900070B50C460546002100F049F8002810D12E
:1015A0002846FFF7E4FF00280BD121462846FFF725
:1015B000D7FE002805D12846BDE870400021FFF77E
:1015C000E3BC70BD0020704710B5002490F85C01AA
:1015D00001F09AFC08B16FF01304204610BD10B55D
:1015E000002490F85C0101F092FC08B16FF0130444
:1015F000204610BD10B5002490F85C0101F0AAFC53
:1016000008B16FF01304204610BD10B50024402B24
:1016100000D3241F90F85C0101F08FFC08B16FF03B
:101620001304204610BD4A088A2100F0B6BA0246CB
:10163000002003290BD003DC49B1012904D106E0C5
:10164000142904D0152902D06FF0070070471174D7
:10165000704770B51C46049E054611B16FF0090035
:1016600070BD142A08D0152A0FD0052C6FD2DFE8E0
:1016700004F066686A6C6F002EB10122BDE870400C
:10168000842100F08ABA1022F8E70122FF2100F03D
:1016900084FA044600221146284600F07EFA0443EC
:1016A0000022FF21284600F078FA0443012280211D
:1016B000284600F072FA044302228521284600F0F1
:1016C0006CFA04430422FF21284600F066FA044322
:1016D0000022CD21284600F060FA04431122CC21DB
:1016E000284600F05AFA04430722FF21284600F05A
:1016F00054FA04430022BE21284600F04EFA044367
:101700000622FF21284600F048FA04430922CC2192
:10171000284600F042FA04430022FF21284600F048
:101720003CFA04430122FF21284600F036FA044324
:1017300000221146284600F030FA204370BD0022F6
:1017400007E0012205E0022203E0032201E017E0A6
:1017500004220A21284600F020FA0028EED196B192
:101760001023EF228421284600F0F6F90028E5D165
:1017700085F8DA402846BDE870400021FFF704BC38
:101780006FF00A0070BD0023EBE700002DE9F04187
:10179000044600200D461646071F03460146024632
:1017A000062D02D33846BDE8F08156B104EB850121
:1017B0004B6B0121062DF5D2DFE805F005080F126D
:1017C00015180122F6E784F8281017E0C3F34F221A
:1017D0004421204600F0ECF90EE084F82A100DE0D8
:1017E00084F82B100AE05300FE2201E01301EF22DF
:1017F0006021204600F0B0F90028D4D1611926B14B
:101800005FF0010281F82820CDE70022FAE770B5E9
:1018100014460022431800EB810593F82830DBB111
:10182000C4F34F23062914D2DFE801F00305080AA8
:101830000C0C446310E01A46442105E0C4630BE03D
:10184000046409E01A46642100F0B2F9020003D0F2
:1018500003E06FF0030200E06C63104670BD01F01E
:10186000E0BB2DE9F8430746002090460E468DF870
:1018700000006A4601213846FFF7A6FE05009DF8E4
:10188000000004462ED1291FB8F1010F06D0052E05
:101890002CD2DFE806F0191C1F222500052E25D2C8
:1018A000DFE806F00306090C0F0044F0100419E00D
:1018B00044F0280416E044F0040413E044F040042B
:1018C00010E044F080040DE004F0EF040AE004F0BE
:1018D000D70407E004F0FB0404E004F0BF0401E0D7
:1018E00004F07F04844210D015B10EE00D460CE0E8
:1018F00022460121384600F050F9050005D187F84D
:10190000304138467969FFF7AAFF2846BDE8F883D9
:10191000F8B501250646047C2A46802100F03DF9F1
:101920000122FF21304600F038F9002211463046EE
:1019300000F033F996F83A219121304600F02DF964
:1019400001220021304600F028F90022FF21304614
:1019500000F023F900228021304600F01EF93CB14E
:101960000425012C26D0032C2FD06FF00700F8BDE2
:1019700001220021304600F010F98DF800500028B7
:10198000F5D100244FF4FA6705E024B16A4600213E
:101990003046FFF719FE9DF80020641C25EA02017D
:1019A000014304D0BC42E2D36FF00600F8BDBC4254
:1019B000EBD3F9E718B901213046FFF7A7FA022265
:1019C00009E000BF86F83251F8BD18B90121304650
:1019D000FFF79CFA04220021304600F0DEF80028D0
:1019E000F0D0F8BD30B597B00446402101A8FEF70D
:1019F000E4FB00258DF84450ADF850508DF854505C
:101A000001212046169500F0D5FA94F8142194F897
:101A10001311012A06D802D1202903D808E03AB9C7
:101A20000C2905D915AA16A9204601F008F902E0EB
:101A3000204601F057FB474900287DD194F850011A
:101A400008B9D4F84C11204601F032F800287ED1B4
:101A500000220423114620460095FFF7FAFD0028D6
:101A600075D10122FF21204600F097F8054614AAFF
:101A700084212046FFF7BEFD05430022FF212046BA
:101A800000F08BF8284362D1BDF8500001A9000195
:101A9000C4F8D4002046FFF763FB002857D111A9F2
:101AA0002046FFF79DFB002851D19DF8440084F8A3
:101AB0003101402201A904F11000FEF765FB11AAD3
:101AC00001212046FFF780FD002840D19DF8440009
:101AD00084F83001002211462046FFF7C2FE00289C
:101AE00035D1002202212046FFF7BBFE00282ED16F
:101AF000032084F8320112AA00212046FFF7FFFCE0
:101B0000002824D19DF8480084F8E80012AA012199
:101B10002046FFF7F4FC002819D19DF8480084F80E
:101B2000E00013AA0321204602F0FDF800280ED1A0
:101B3000139813AA042100E009E0C4F8E400204649
:101B400002F0F1F8002802D11399C4F8DC1017B0A4
:101B500030BD0000140000202DE9F84390F85C61CE
:101B600090461F46894600246A46304601F0CCF96B
:101B70006FF0130508B12C460CE09DF80020494693
:101B800002EA08023A438DF80020304601F0FDFADF
:101B90000028F0D12046BDE8F88310B5002490F865
:101BA0005C0101F0F2FA08B16FF01304204610BD99
:101BB00010B5002490F85C0101F0FAFA08B16FF05A
:101BC0001304204610BD10B50024402B00D3241F61
:101BD00090F85C0101F0DFFA08B16FF013042046C1
:101BE00010BD00002DE9F047B0F854C1D0F85801FD
:101BF000DDE90A860CFB00F58035DDE908972C0A43
:101C00004FF0000A04FB0CF4554652B1880200EB79
:101C10005200B0FBF2F000EB4000404300F5004002
:101C2000050C07F50040000C0622C01CB0FBF2F0CA
:101C300003FB09F303F50043190C4943C0EBC00053
:101C4000B0F5803F01D31C4808E0FF1CB7FBF2F061
:101C5000C0EBC00000F50040000C4043084400EB1E
:101C60005800B0FBF8F08003FE227F30B0FBF2F0AA
:101C700068434FF47A7100F5FA70B0FBF1F000019F
:101C800000F5FA70B0FBF1F7402004F12001B1FB40
:101C9000F0F000F0F7FE054627B104EB5700B0FB6B
:101CA000F7F000E0002000F0EDFE3560854200D93D
:101CB00030605046BDE8F0870000F0FF01EBC10145
:101CC00040F277600902A1FB000170472DE9FF4F48
:101CD00087B00446006A0690884608694FF47A7116
:101CE0004843000C0390D8F80C000590DFF8F8B1D9
:101CF0004FF4481604AA4146204600F086FE06AA84
:101D00004146204600F08FFE81464FF47A710498D8
:101D1000069D484300F50040070C4D43B54200D9ED
:101D20003546B9F1000074D1D4F8DC00019094F884
:101D3000E06001463246204600F0DCF88246D4F8E6
:101D4000E4000090014694F8E820204600F0D2F824
:101D500001460320082E00D1022051444143C9020C
:101D60004FF47A7001F5FA71B1FBF0F140F277624D
:101D7000514301F5FA71B1FBF0FA04988030010A81
:101D800001FB0AF08030060A080204900FB14EB140
:101D900009E00999C1F800B0C4F840B10A980021DF
:101DA00001609CE001264FF44870029003984F496F
:101DB0000004B0FBF7F0884200D908464FF41671D2
:101DC00000FB01F906EB4600800000F05BFE4000DE
:101DD0000390B8F8081046486A424143380400EBC3
:101DE00042024FF47A7002F5FA72B2FBF0F243103D
:101DF00003EB0743B3FBF0F01202B2FBF0F0002854
:101E000000DA404298F8182000021AB14FF48035E9
:101E10000FE065E041F25C22B1FBF2F1C0F58030E9
:101E2000484300F50040000C00F580304008404376
:101E3000850B4FF4487105FB01F000F50040010CE3
:101E400009F50040000C49434043084400F01AFEE5
:101E5000000464213230B0FBF1F10398B1FBF0F0E3
:101E600040F6B531484341F2883108444900B0FB9F
:101E7000F1F74FF47040874200D90746DDE90010C2
:101E800008444FF47A7800F5FA70B0FBF8F04FF49C
:101E9000C81101EB5001B1FBF0F000F0F3FD0002BE
:101EA00000F5FA70B0FBF8F07F434043384400F08F
:101EB000E9FD414648430EB1584500D958460999B5
:101EC0000860C4F840010A98029B03908DE8080658
:101ED000DDE904122B462046FFF784FE8146484682
:101EE0000BB0BDE8F08F0000AE878F02666666001B
:101EF0009A99060000B50B461146FFF7DFFE4FF436
:101F00007A7100F5FA70B0FBF1F04B4303EB50012E
:101F1000B1FBF0F000BD00B50B461146FFF7CEFE59
:101F20004FF47A7100F5FA70B0FBF1F0434303F51A
:101F3000FA73B3FBF1F000BD0146C0B2090A884054
:101F4000401C70474000801CC0B27047F8B5064680
:101F500000228321FFF721FE040011D100254FF458
:101F6000FA676A4683213046FFF72EFB04469DF848
:101F7000000020430BD0BD4202D300BF6FF0060427
:101F8000012283213046FFF708FE2043F8BD6D1C77
:101F9000BD42E6D3F2E70022114648B1401E02E0FE
:101FA0004008491C89B2020AFAD161F31F2082B2AB
:101FB000104670472DE9F04F95B0002504460E9568
:101FC0004FF4C8500F95CDE90450129594F8F06085
:101FD0000F46AB46AA46072E7ED00122802120461E
:101FE000FFF7DBFD80460122FF212046FFF7D5FDEC
:101FF00040EA0805002211462046FFF7CEFD40EAE0
:1020000005080622FF212046FFF7C7FD40EA080524
:1020100002AA83212046FFF7D7FA40EA05089DF877
:102020000800832140F004022046FFF7B6FD40EA95
:1020300008050722FF212046FFF7AFFD40EA05080B
:10204000012281212046FFF7A8FD40EA080520462D
:10205000FFF7B8FA40EA0508012280212046FFF781
:102060009CFD40EA0805F80755D0F00753D16B22D4
:1020700094212046FFF791FD40EA05082046FFF72E
:1020800065FF40EA080501AA90212046FFF7A7FA5C
:1020900040EA050801982422C0F30621C0F3C03BA2
:1020A000129194212046FFF778FD40EA080520466A
:1020B000FFF74CFF40EA050801AA90212046FFF7F0
:1020C0008EFA40EA08050198010E8DF82C10010CDB
:1020D0008DF82D10010A00E0FCE18DF82E108DF82E
:1020E0002F00252294212046FFF757FD40EA0508DE
:1020F0002046FFF72BFF40EA080901AA902120465D
:10210000FFF76DFA40EA09050198010E8DF83010CD
:10211000000C8DF83100B8077ED5B0077CD40222C0
:1021200094212046FFF739FD40EA05082046FFF7D5
:102130000DFF40EA080513AA90212046FFF744FA54
:1021400040EA05087B2294212046FFF726FD40EA5D
:1021500008052046FFF7FAFE40EA050810AA90217C
:102160002046FFF731FA40EA0805772294212046FD
:10217000FFF713FD40EA05082046FFF7E7FE40EAB7
:10218000080501AA90212046FFF729FA40EA050830
:1021900001987822410E8DF81810C0F386418DF811
:1021A0001910C0F3C6218DF81A10C0F306110007EC
:1021B000400E8DF81B108DF8080094212046FFF783
:1021C000ECFC40EA08052046FFF7C0FE40EA05089F
:1021D00001AA90212046FFF702FA40EA08059DF87F
:1021E0000810019801EB50718DF81C10C0F3865156
:1021F0008DF81D10C0F3C6318DF81E10C0F30621F6
:102200008DF81F10C0F34601C007400E8DF8201056
:102210008DF80800792200E055E094212046FFF770
:10222000BCFC40EA05082046FFF790FE40EA08059E
:1022300001AA90212046FFF7D2F940EA05089DF84F
:10224000081001987A2201EB90618DF82110C0F3FB
:10225000C6418DF82210C0F306318DF82310C0F36B
:102260004611C006400E8DF824108DF80800942108
:102270002046FFF792FC40EA08052046FFF766FE7D
:1022800040EA050801AA90212046FFF7A8F940EA94
:1022900008059DF80810019801EB90718DF8251044
:1022A000C0F3C6518DF82610C0F306418DF82710F3
:1022B000C0F346218DF82810C0F386008DF8290060
:1022C00000208DF82A0078077ED570077CD47B2209
:1022D00094212046FFF761FC40EA05082046FFF7FD
:1022E00035FE40EA08050EAA90212046FFF777F94F
:1022F00040EA05087C2294212046FFF74EFC40EA84
:1023000008092046FFF722FE40EA09050FAA90219E
:102310002046FFF764F940EA05087322942120461D
:10232000FFF73BFC40EA08052046FFF70FFE40EAB6
:10233000050801AA90212046FFF751F940EA080557
:102340000198742200064FEA104994212046FFF7B5
:1023500024FC40EA05082046FFF7F8FD40EA08059E
:1023600001AA90212046FFF73AF9019940EA0508B1
:1023700049EA11600490752294212046FFF70DFC74
:1023800040EA08052046FFF7E1FD40EA050901AAF9
:1023900090212046FFF723F940EA090801987622A8
:1023A00000064FEA104994212046FFF7F6FB40EA69
:1023B00008052046FFF7CAFD40EA050801AA90215A
:1023C0002046FFF70CF900E004E0019940EA080517
:1023D00049EA116A002281212046FFF7DEFB40EA2C
:1023E00005080622FF212046FFF7D7FB40EA080533
:1023F00002AA83212046FFF7E7F840EA05089DF886
:102400000800832100F0FB022046FFF7C6FB40EAEC
:1024100008050122FF212046FFF7BFFB40EA05081F
:10242000012200212046FFF7B8FB40EA0805002200
:10243000FF212046FFF7B1FB40EA0508002280217A
:102440002046FFF7AAFB50EA080543D1F8070FD052
:10245000F0070DD1129884F8130184F814B100200C
:102460000BA923180A5C401C83F82A210628F8DBF4
:10247000B8070ED5B0070CD49DF84C0084F8F100D5
:102480009DF8400084F8F20004F1F30006A9FDF77E
:102490009FFE780719D5700717D40E98C4F8180155
:1024A0000F98C4F81C0104984002C4F820010020D1
:1024B000BAF1000F08D00599AAEB01004FF47A1188
:1024C00048430014404200B2E0603E438DF808608B
:1024D00084F8F06015B02846BDE8F08F30B585B0BF
:1024E00005464FF4FA6002900020039040F6363023
:1024F00008600C4669462846FEF7C8FF00284DD103
:102500009DF8001029B99DF8011011B99DF802102D
:1025100011B302AA0221284601F005FC00283DD192
:102520009DF8001029B10299226801F24E21114450
:1025300021609DF8021031B10299226801F2B221A6
:1025400002EB410107E09DF8011029B102992268D0
:1025500001F52571114421609DF8031061B103AAB2
:102560000321284601F0DFFB0399226801F525715C
:1025700011442160002811D19DF8041061B104AA12
:102580000421284601F0CFFB0499226801F226219C
:1025900011442160002801D12168696105B030BD76
:1025A00038B50C4640F2FF756A462821FFF722F83D
:1025B00000280DD1BDF80010C1F30B02ADF80020CA
:1025C000AA424FF0FA0101DDA2F580524A4322608F
:1025D00038BD000010B500240B4610F1080F3DD0A7
:1025E0001DDC10F1140F41D00CDC10F1630F45D04D
:1025F00010F1320F40D010F1280F3BD010F11E0F18
:102600003ED135E010F10C0F22D010F10B0F2BD082
:1026100010F10A0F26D010F1090F31D120E0C01DB2
:1026200008282DD2DFE800F0181612100E0C060450
:1026300014A100E016A11846FDF7CAFD204610BD02
:102640001AA1F8E71EA1F6E721A1F4E727A1F2E716
:102650002BA1F0E730A1EEE732A1ECE735A1EAE7E4
:102660003BA1E8E73FA1E6E743A1E4E749A1E2E7B0
:102670004EA1E0E753A1DEE758A1DCE75EA1DAE76F
:1026800063A1D8E74E6F204572726F7200000000A0
:1026900043616C6962726174696F6E205761726E1A
:1026A000696E67204572726F720000004D696E207E
:1026B000636C6970706564206572726F72000000EF
:1026C000556E646566696E6564206572726F72002E
:1026D000496E76616C696420706172616D657465C4
:1026E0007273206572726F72000000004E6F74206A
:1026F000737570706F72746564206572726F7200AA
:10270000496E74657272757074206E6F7420436CBC
:10271000656172656400000052616E6765206572D4
:10272000726F720054696D65206F757420657272E6
:102730006F7200004D6F6465206E6F74207375704A
:10274000706F72746564206572726F7200000000B1
:1027500042756666657220746F6F20736D616C6C74
:10276000000000004750494F206E6F742065786963
:102770007374696E670000004750494F2066756E9C
:102780006374206E6F7420737570706F72746564FB
:1027900000000000436F6E74726F6C20496E7465A8
:1027A0007266616365204572726F7200496E766170
:1027B0006C696420436F6D6D616E64204572726F49
:1027C000720000004469766973696F6E2062792037
:1027D0007A65726F204572726F720000526566658D
:1027E00072656E6365205370616420496E69742060
:1027F0004572726F720000004E6F7420696D706CCC
:10280000656D656E746564206572726F720000009C
:10281000556E6B6E6F776E204572726F7220436FCC
:10282000646500002DE9FF4F8BB04FF00009199D42
:102830008DF800909A460646C8464F468DF804909B
:102840008DF808908DF80C90ADF81090C1F3C3048A
:10285000CDF81490BCB1052C15D0072C13D00C2C3E
:1028600011D00D2C0FD00E2C0DD00F2C0BD0002022
:1028700083466A4600213046FEF705FD9DF80010AC
:10288000C9B110B11DE00120F2E705AB06AA304640
:102890001899FFF71BFAA0B91899059807AA48815B
:1028A00000213046FEF7FCFC079921B1069A8A42C6
:1028B00001D94FF0010920B902AA02213046FEF7E2
:1028C000E2FC9DF8081011B338BB08AA022130467B
:1028D000FEF7E6FC80B90122FF213046FFF75DF9E3
:1028E00050B904AAB6213046FEF784FE20B9002272
:1028F000FF213046FFF751F9BDF810104902C6F824
:102900004811089A1AB1914201D94FF0010820B933
:1029100003AA03213046FEF7B6FC9DF80C1091B1D6
:1029200090B9BAF1000F12D00D980102B1FBFAF084
:10293000824609AA03213046FEF7B2FC099911B17B
:102940008A4500D2012720B1287858B32DE0002015
:10295000EEE7BBF1000F01D0FF2013E0012C10D0F7
:10296000022C0ED0032C0CD0062C0DD0092C0BD031
:10297000082C04D00A2C02D0B8F1000F06D0032096
:1029800000E00520287010E00420FBE7042C00D0B4
:102990000FB10220F6E7B9F1000F01D00120F1E7F5
:1029A0000020287018990020488101AA0121304692
:1029B000FEF769FC002825D19DF8001011B15FEAEF
:1029C000090100D0012186F82E10042C15D09DF8A5
:1029D000041091B15FF0000186F82F109DF80810E7
:1029E00011B15FEA080100D0012186F830109DF88E
:1029F0000C1001B11FB1012102E00121ECE700211F
:102A000086F831100FB0BDE8F08F38B51446CA68AB
:102A100022606A4600F007F8002803D12168009A76
:102A20001144216038BDF8B5064600200D461060FF
:102A3000144669463046FEF77AFD002809D19DF814
:102A40000010002905D0A98A326A51438031090A51
:102A50002160F8BD38B5144621B1012905D06FF0C9
:102A600003010DE06A46502101E06A467021FEF73D
:102A7000ABFD010004D19DF80000FFF763FA207060
:102A8000084638BD024600204FF0804100E089082A
:102A90009142FCD808E04318934203D8D21A01EBC4
:102AA000500000E0400889080029F4D17047000078
:102AB000F8B5074600200D460446061F13E0CBB2CA
:102AC000641CFF2B05D0042B0CD8295D00206A461E
:102AD00039E0295D641C61B1012912D0022918D0A6
:102AE00003291ED03046295D002901D00028E6D0F8
:102AF000F8BD2A5D641C295D01EB0221A7F83411A1
:102B000016E0295D641C2A5D02EB0121A7F836114D
:102B10000EE02A5D641C295D01EB0221A7F8381143
:102B200006E0295D641C2A5D02EB0121A7F83C1137
:102B3000641C295D0029C2D1F8BD00BF15F804C08E
:102B400002F800C0401C641C9842F7DB3846FFF7CF
:102B50003AF8C8E7F8B5064600208DF800000446AC
:102B60004FF4FA6569463046FEF7D7FB002807D1D7
:102B70009DF80010012903D0641CAC4201D3C01F92
:102B8000F8BD3046FEF71EFDECE72DE9F04385B0B9
:102B90001D0091460E4607464FF0000401D097F8FD
:102BA000304102220121FEF7F8FF4FF0000838B94A
:102BB0000021384600F052F910B9B9F1010F11D0D7
:102BC00086F8008000280AD1002D08D02246012175
:102BD0003846FEF7E2FF002801D187F8304105B002
:102BE000BDE8F083012004A9CDE90016CDE90280FB
:102BF000424601461346384600F0BAF9E2E72DE9AD
:102C0000F0411E461746054690F8304100233246F3
:102C100000F040F9002810D10023324639462846FA
:102C2000FFF7B3FF002808D1224601212846FEF70E
:102C3000B4FF002801D185F83041BDE8F0812DE9CD
:102C4000F74F96B006462C200B9000200E90119066
:102C50008DF84C008DF850001290B6F83CA14FF062
:102C6000B4094FF0030B01464FF0060807467218EF
:102C70000020491C82F824014145F8D30122FF219C
:102C80003046FEF78AFF040079D100224F213046FA
:102C9000FEF783FF0400F7D12C224E213046FEF7C9
:102CA0007CFF0400F0D10022FF213046FEF775FFC3
:102CB0000400E9D14A46B6213046FEF76EFF040013
:102CC000E2D1002280213046FEF767FF0400DBD10D
:102CD000002314AA13A93046FFF791FF0400D3D1B3
:102CE00006F592730EAACDF8008006930E90CDE9FA
:102CF00003B29A1D0A92CDE901900146304600F0D8
:102D000073FF04003BD109A930460E9D01F0D8F8AD
:102D1000040034D1BDF82410514531D900213218B6
:102D2000401C82F824114045F9D300E06D1C09EBEA
:102D3000050001F071F810B90B988542F6D3012017
:102D40000EA9CDF800801590CDE903B1CDE901952C
:102D500001463046069B0A9A00F046FF040079D1EE
:102D600009A930460E9D01F0ABF8040072D1BDF800
:102D70002410514505D901205F46129001E051E031
:102D8000159089B2514555D2159812905F4642462A
:102D90000FA80699FDF7F8F9BDF82410B1EB0A0069
:102DA00000D54042834611AB2A4641460A9800F0BE
:102DB00087FF1198411C0FD0484401F02DF8159958
:102DC00088422ED1119D41462A467F1C069800F06C
:102DD00055FF040003D03DE06FF031043AE0304687
:102DE0006D1C069901F0D4F8040033D109A93046CE
:102DF00001F066F804002DD1BDF82410B1EB0A00F3
:102E000000D5404251450ED958450AD90FA9304640
:102E100001F0BEF8044642460FA90698FDF7B4F942
:102E20007F1E3CB116E0834642460FA80699FDF787
:102E3000ABF9B8E717980760189912980870012045
:102E400086F815011798007886F81301189800780D
:102E500086F8140119B02046BDE8F08F10B541F096
:102E6000010204460021FEF798FE002811D12046F9
:102E7000FFF770FE00280CD100212046FEF784F8F1
:102E8000002806D120460022BDE810401146FEF77A
:102E900084BE10BD2DE9F04385B04FF000051E0043
:102EA00091460F4680462C468DF8105001D098F878
:102EB000305101221146FEF770FE38B940214046DC
:102EC000FFF7CCFF10B9B9F1010F10D03C7000280A
:102ED0000AD1002E08D02A4601214046FEF75DFEA9
:102EE000002801D188F8305105B0BDE8F0830120F9
:102EF00004A900970394CDE9011022460146134628
:102F0000404600F035F8E2E7012300F016B838B586
:102F1000144604236A4600F010F89DF803109DF84B
:102F200000209DF8023001EB02619DF8012012049F
:102F300002EB03221144216038BD70B5054698B2FA
:102F4000134602460024284600F0CEFA00B10124C0
:102F5000204670BD38B5144602236A46FFF7EDFFE0
:102F60009DF801109DF8002001EB0221218038BD61
:102F70002DE9FF4F81B00020DDE90EA9DDE91065E4
:102F80000F468DF800009B460122FF210198FEF7B5
:102F900004FE0446002211460198FEF7FEFD40EAB9
:102FA00004080022FF210198FEF7F7FD40EA08041B
:102FB0006FB12EB15246CB210198FEF705FB0443B9
:102FC000A5B16A46EE210198FEF7FEFA0DE02EB19A
:102FD000CB21039A0198FEF7E0FD044335B15B462F
:102FE0008022EE210198FEF7B7FD04430122FF2164
:102FF0000198FEF7D2FD0443012200210198FEF75B
:10300000CCFD04430022FF210198FEF7C6FD9DF888
:103010000010204301F0EF0289F8002005B0BDE860
:10302000F08F2DE9FF4107464FF4FA60029000202F
:10303000039044F620600E466FF0030581424FD3A3
:10304000A6F6363469463846FEF720FA002844D101
:103050009DF8001029B99DF8011011B99DF80210D2
:1030600001B302AA0221384600F05DFE002834D1E7
:103070009DF8001029B1029901F24E21A1422FD2F0
:10308000641A9DF8021021B1029901F2B22149009F
:1030900005E09DF8011029B1029901F52571A142C1
:1030A0001ED2641A9DF8031061B103AA03213846A9
:1030B00000F039FE039901F52571A14210D2641A7E
:1030C00000280AD19DF80410002906D0A4F2262277
:1030D0000421384600F061FF7E6104B0BDE8F08154
:1030E0002846FAE72DE9F0479046894686B004461F
:1030F0000025B42606274FF02C0A0122FF21FEF7F7
:103100004CFDB0B900224F212046FEF746FD80B9A4
:103110002C224E212046FEF740FD50B90022FF210F
:103120002046FEF73AFD20B93246B6212046FEF78A
:1031300034FD002001462218401C82F82411B842B8
:10314000F9D3B8F1000F01D106E06D1C701900F041
:1031500063FE08B95545F8D305A90097CDE9039159
:10316000CDE9016504F592739A1D4146204600F0B1
:103170003BFD002806D1012184F8151184F8139134
:1031800084F8148106B0BDE8F08707B5012302AAD0
:1031900000F001F80EBD70B5054698B21346024620
:1031A0000024284600F074FA00B10124204670BDC6
:1031B00038B50546100A8DF800000C468DF8012040
:1031C000C8070BD001236A462846FFF7E4FF641CBA
:1031D000E1B2012328460DF1010202E002236A4612
:1031E0002846FFF7D8FF38BD7FB5522180F85C1123
:1031F000012180F85D114FF4C871A0F85E11254ED1
:1032000004464FF40045002229463046FDF77CF97C
:103210001E2000F0C2FC012229463046FDF774F959
:103220001E2000F0BAFC94F85C111BA000F054FAC8
:103230005421204600F032FF94F85C1116A000F0F3
:103240004BFA2046FDF7C6FE050001D016A005E0AA
:103250002046FEF7C7FB050003D019A000F03CFA9A
:1032600015E001AA69462046FEF77CF905000CD15D
:1032700003AA02A92046FEF778F9050005D100212E
:103280002046FEF7D4F9050002D000F04BFE284698
:1032900004B070BD000801402020416464723A30DF
:1032A0007825780D0A00000064617461696E6974A4
:1032B00020206661696C65642120200D0A000000F1
:1032C0007374617469632020696E6974202066617B
:1032D000696C6564210D0A002DE9F84380460020E1
:1032E0008DF8000004460E464046FEF711FB0546E9
:1032F00020A000F0F1F915B12846BDE8F8834FF49D
:10330000FA6520A000F0E8F969464046FEF705F8A6
:10331000074620A000F0E0F99DF8000017B1012851
:1033200009D022E0012806D0641CAC421DD24046E0
:10333000FEF748F9E5E7204C218820A000F0CCF901
:1033400031464046FEF70CF81FA000F0C5F998F88A
:103350005C1126A000F0C0F930892080218817A0D8
:1033600000F0BAF92846FCF7C1FF00214046FDF7FE
:103370000BFEC2E7BFAACABCB2E2CAD4A3BA0D0A06
:1033800000000000BFAACABCD7BCB1B8A3BA0D0ADE
:1033900000000000564C35334C30585F4765744D83
:1033A0006561737572656D656E74446174615265B3
:1033B0006164790D0A00000000000020643A2025B5
:1033C00034696D6D0D0A0000564C35334C30585F32
:1033D00047657452616E67696E674D65617375729A
:1033E000656D656E74446174610A0D00202041644E
:1033F00064723A307825780D0A00000070B50D4CE3
:103400000025C4F898510C48016821F07041016012
:10341000016841F040510160C4F89C51022004F55C
:10342000CC7400F0C7FB01202060022000F0C2FB3A
:10343000256070BD00802142000C014070B50D4C2C
:103440000025C4F898510C48016821F070410160D2
:10345000016841F0405101600126C4F89C610220DE
:1034600004F5CC7400F0A6FB2660022000F0A2FB5D
:10347000256070BD00802142000C01402DE9F0471D
:10348000814617480024016821F0704101600168FD
:1034900041F000410160134E254627464FF00108D8
:1034A000C6F89871042000F085FBC6F89881600684
:1034B000040ED6F81C0108B1641CE4B2042000F02C
:1034C00079FB6D1CEDB2082DEAD3B9F1000F04D0E1
:1034D000FFF794FF2046BDE8F087FFF7AFFFF9E75D
:1034E000000C0140008021422DE9F0411D461446A8
:1034F0000F46064600F05EF8304600F027F800F070
:103500009BF820B100F076F80120BDE8F081384644
:1035100000F01CF800F090F800F04CF846F00100C4
:1035200000F014F800F088F808E0012C0CD001201D
:10353000FFF7A4FF641E05F8010BA4B2002CF4D120
:1035400000F058F80020E0E70020F1E72DE9F04115
:1035500006461648016821F070410160016841F09B
:1035600040510160124C0027C4F898713D464FF05D
:103570000108300602D5C4F89C8101E0C4F89C71B2
:103580007006060E022000F015FBC4F89881022098
:1035900000F010FBC4F89871022000F00BFB6D1CCA
:1035A000EDB2082DE5D3BDE8F0810000000C01402C
:1035B0000080214270B50D48016821F07041016022
:1035C000016841F040510160094C0120C4F89C01A0
:1035D000C4F89801042004F5CC74FCF787FE00259C
:1035E0006560042000F0E6FA256070BD000C014023
:1035F000008021420E4810B5016821F07041016041
:10360000016841F0405101600A4C0020C4F8980163
:10361000C4F89C01042004F5CC7400F0CBFA01201E
:1036200020606060BDE81040042000F0C3BA0000D4
:10363000000C01400080214270B51348002401684D
:1036400021F070410160016841F0004101600F4DBF
:103650000126C5F89C61304600F0ACFAC5F89861C7
:10366000012000F0A7FA07E0641CE4B2FA2C03D9A9
:10367000FFF7C0FF012070BDD5F81C010028F3D171
:10368000C5F8980170BD0000000C01400080214287
:103690002DE9F0411C4615460F460646FFF78AFF06
:1036A0003046FFF753FFFFF7C7FF20B1FFF7A2FF38
:1036B0000120BDE8F081384602E000BF14F8010B9C
:1036C000FFF744FFFFF7B8FF6D1EADB2F6D2FFF76C
:1036D00091FF0020EDE700000FB4054B10B503A9E2
:1036E000044A029800F028F810BC5DF814FB0000B2
:1036F000A93C0008D40200200907090E002804DBB9
:1037000000F1E02080F80014704700F00F0000F195
:10371000E02080F8141D704702E008C8121F08C19D
:10372000002AFAD170477047002001E001C1121F42
:10373000002AFBD1704700002DE9FF4F8DB00F46E6
:103740000546002606E025280BD0DDE90F1290473C
:103750006D1C761C28780028F5D111B03046BDE8E4
:10376000F08F0024A246A1460122EC4900E0044368
:1037700015F8013F203B02FA03F00842F7D1287800
:103780002A2810D06FF02F022878A0F130010929E3
:1037900014D80AEB8A0102EB410144F0020400EB69
:1037A000010A6D1CF0E701CF5FEA000A03D544F47B
:1037B0000054CAF1000A44F002046D1C28782E2837
:1037C00017D115F8010F44F004042A280ED06FF029
:1037D0002F022878A0F1300109290AD809EB8901C4
:1037E00002EB410100EB01096D1CF2E757F8049B65
:1037F0006D1C28786C280FD006DC4C2817D0682860
:103800000DD06A2814D104E0742810D07A280FD182
:103810000DE044F400140AE044F4801401E044F4A0
:1038200040146978814202D104F580146D1C6D1C2E
:103830002A786E2A1FD00CDC632A31D004DC002ADF
:103840008BD0582A11D1A3E0642A68D0692A0CD100
:1038500065E0732A2ED004DC6F2A73D0702A04D15D
:103860009BE0752A6FD0782A6ED01046DDE90F12E2
:103870009047761C50E1C4F30250022806D003287A
:1038800009D0042801CF09D0066045E101CFF11726
:10389000C0E9006140E101CF06803DE106703BE1F7
:1038A00017F8040B8DF8000000208DF80100EB469E
:1038B000012003E057F804BB4FF0FF3061074FF0E1
:1038C000000102D40DE008F10101884649450FDAF4
:1038D0008045F8DB1BF808100029F4D108E008F156
:1038E000010188468142FADB1BF808100029F6D155
:1038F000DDE90F23AAEB08008146214600F036F9E6
:10390000304400EB080604E0DDE90F121BF8010B60
:103910009047B8F10108F7D221464846F7E00A215E
:10392000C4F302534FF0000B0891022B04D001CFD7
:10393000C117032B09D00AE0FF1D27F00707F7E89E
:10394000020108E032E01FE020E000B2C117042BC2
:1039500001D140B2C117031E71F1000307DA4FF025
:10396000000CD0EB0C006CEB01012D2302E02305D1
:1039700004D52B238DF82430012303E0E30701D085
:103980002023F7E7984658E00A2110E010210EE0C6
:1039900010204FF0000B08900CE010214FF0000BAE
:1039A00044F004044FF00809089103E008214FF0A7
:1039B000000B0891C4F30253022B04D001CF002165
:1039C000032B06D006E0FF1D27F00707F7E80201EA
:1039D00003E080B2042B00D1C0B24FF000082307EF
:1039E0002BD5702A07D0DDF820C08CF0100C5CEAD3
:1039F0000B0C05D00EE040238DF82430012308E0A5
:103A000050EA010306D030238DF824308DF82520AC
:103A100002239846DDF820C08CF0080C5CEA0B0C01
:103A20000BD150EA010301D1630706D530238DF88D
:103A300024304FF00108A9F10109582A04D038A216
:103A40000B9208AA0A920BE03AA2F9E75B46089AA1
:103A5000FCF7C7FB0B9B9B5C0A9A521E0A921370E1
:103A600050EA0102F2D10A98ADEB000000F1200B00
:103A7000600702D524F4803401E04FF00109D945F4
:103A800002DDA9EB0B0000E0002000EB0B0141443C
:103A90000890AAEB010AE00306D4DDE90F232146D2
:103AA000504600F063F806444FF0000908E009A909
:103AB00011F80900DDE90F12904709F10109761CA0
:103AC000C145F4DBE0030CD5DDE90F232146504668
:103AD00000F04CF8064404E0DDE90F123020904776
:103AE000761C0899481E08900029F5DC08E00A9821
:103AF0000A990078491C0A91DDE90F129047761C5B
:103B0000BBF10001ABF1010BF1DC21465046DDE9D0
:103B10000F2300F019F806446D1C1BE6092801006C
:103B20003031323334353637383961626364656633
:103B300000000000303132333435363738394142F5
:103B400043444546000000002DE9F04104460025AD
:103B50001E461746880404D405E039462020B047A5
:103B60006D1C641EF9D52846BDE8F0812DE9F041B1
:103B7000044600251E469046C80301D5302700E0C4
:103B80002027880404D505E041463846B0476D1C1F
:103B9000641EF9D52846BDE8F08170B505460024BD
:103BA0004FF47A7603E0304600F004F8641CAC422F
:103BB000F9D370BD70B54FF0E02400226569094962
:103BC000A36909684843A1699942FCD002D2A3EBDA
:103BD000010302E0A5EB010633441A440B4682427E
:103BE000F1D370BDD00200202DE9FF4F83B0002437
:103BF000DDE9125A149F9B46DDF8409026466FF08F
:103C0000310800951AE06B462A464946059800F0AF
:103C100057F80098411C06D01199084400F0FCF8B0
:103C20000499884202D044463D6023E0009D494605
:103C30002A46584600F022F86D1C761C5645E2D301
:103C40003D60BCB95946039800F0A2F9040011D1B7
:103C500001A9039800F062F80446002001A907E0DA
:103C60001BF800200B5C9A4201D0444602E0401C45
:103C70004845F5D307B02046BDE8F08F70B508255C
:103C8000B2FBF5F3B2FBF5F60446002005FB162265
:103C90008B4202D36FF0310070BDE15C012595408D
:103CA0002943E15470BD000013B54FF6FF730122A4
:103CB00069460248FCF7B8FF00981CBD5404002078
:103CC0002DE9F043082581464FF0FF301860B2FB24
:103CD000F5F0B2FBF5F605FB10274FF0000C30466F
:103CE00015E0002219F80040B04202D1FC403A46EB
:103CF0000AE05FEAC47805D000FB05224FF0010C12
:103D00001A6003E06408521CAA42F2D3401C8842A5
:103D100002D2BCF1000FE4D0BDE8F08306230A46CE
:103D2000B021FDF772BC2DE9F04100248AB017469E
:103D300080468DF81C402546ADF81840264641B116
:103D4000012906D0022904D0032912D0042929D040
:103D50005DE06A4600214046FDF7D1FB040005D135
:103D600007AA46214046FDF72FFC04469DF81C009B
:103D700015E06A4600214046FDF7C1FB040046D12C
:103D80006A4600214046FDF7BAFB040005D106AAA9
:103D900051214046FDF72EFC0446BDF81800FEF701
:103DA000CBF82DE004A94046FDF770FB9DF8130009
:103DB000002590B16A4600214046FDF7A0FB0400B3
:103DC0001DD106AA51214046FDF714FC0446BDF85A
:103DD0001800FEF7B1F885B28CB96A460121404659
:103DE000FDF78DFB04000AD108AA71214046FDF7BA
:103DF00001FC0446BDF82000FEF79EF886B2701B59
:103E000081B29DF800204046FEF785F805463D60EA
:103E10000AB02046BDE8F0810146044A8909012024
:103E200052F82110002900D100207047C002002064
:103E3000FCF77EFBFCF7B8FFFCF750FFFCF792FFA6
:103E40000F48FFF7D1F910F0FF0F14D00DA0FFF7C6
:103E500043FC4FF4FA60FCF749FA00BF4FF47A7460
:103E60000EA0FFF739FC10490548FFF735FA204648
:103E7000FFF793FEF4E70DA0FFF72EFCEEE700003E
:103E8000D8020020564C35334C3020496E697420DE
:103E90006572726F72210D0A00000000BFAACABCD1
:103EA0006C653A0D0A00000038040020564C35338A
:103EB0004C3020496E6974204F4B0D0A0000000001
:103EC00070B50E4688B0054690F83041C0220121F9
:103ED000FDF763FE002823D169462846FDF758FB0D
:103EE00000281DD10122FF212846FDF756FE00289B
:103EF00016D13246B6212846FDF77CFB00280FD1AB
:103F00000022FF212846FDF748FE002808D122465E
:103F100001212846FDF741FE002801D185F83041F6
:103F200008B070BD10B588B004466946FDF716FAB2
:103F30006A46214602A0FFF7CFFB08B010BD000083
:103F4000415049205374617475733A202569203AB1
:103F50002025730D0A00000010B5002018700529F7
:103F600013D2DFE801F00306090C0F00C2F30011C1
:103F700009E0C2F3C00106E0C2F3800103E0C2F32E
:103F8000801100E0D109197010BD6FF0030010BD61
:103F900006230A46B021FDF716BEF0B587B01646D7
:103FA000054661B101290AD0022908D0032922D08F
:103FB00004293ED06FF0030407B02046F0BD05AAE7
:103FC0000021FDF79CFA0400F6D19DF8142031463B
:103FD0002846FDF78FFF80B2B0F5807F01D9FF2220
:103FE00001E0401EC2B2A5F8D82046212846FDF7C0
:103FF000D4FD0446E0E705AA0021FDF780FA044657
:104000009DF8142031462846FDF774FF80B2FDF775
:10401000C2FFADF808000246A5F8D800002CCBD1AD
:1040200051212846FDF7C4FD0400C5D1C5F8E46060
:10403000C2E703A9FDF72AFA9DF80F00002798B1FF
:1040400005AA00212846FDF75AFA0400B4D102AAB5
:1040500051212846FDF7CEFA0446BDF80800FDF7C9
:104060006BFF87B2002CA7D105AA01212846FDF7D6
:1040700046FA0400A0D19DF8142031462846FDF7E9
:1040800039FF3844FDF787FF024671212846FDF7C6
:104090008FFD040090D1C5F8DC608DE7F8B50646C9
:1040A00090F85C010D46A84201D10020F8BD002225
:1040B00088213046FDF771FD040001D0012515E08F
:1040C0006A46C0213046FDF795FA040001D002256A
:1040D0000CE0BDF80000A0F56E41AA390DD12946CB
:1040E0003046FDF7A0FA040009D00325FFF71AFFB8
:1040F0001DB1294608A0FFF7EFFA2046F8BD86F863
:104100005C516A46C0213046FDF774FA0400F4D0D1
:104110000425FFF707FFECE77374613A30782578E0
:104120000D0A00000000000000000000010203046E
:104130000607080900000000010203045C410008B2
:1041400000000020D802000086020008F0430008AA
:10415000D8020020C0050000283700081006020021
:104160000000010453100001100724F40001FF01B6
:1041700013301501FF0001090001100001110001B9
:1041800024010125FF01751B20094E2C0148000167
:10419000302021203630090154000131040132035E
:1041A00001408301462501600001270001500601FE
:1041B0005100015296015608015730016100016219
:1041C000000164000165000166A045300B22320148
:1041D00047140149FF014A6920097A0A017B00015D
:1041E000782160201B23340142000144FF01452651
:1041F000014605014040010E0601201A0143402AF4
:104200002006340301354487117520094B09014C00
:1042100005014D0442301D440001452001470801BD
:1042200048280167000170040171010172FE0176E6
:10423000000177B7230D0169200680010101F8C64E
:10424000128EE4411221F6511B51F9106701014F02
:104250000201FF0E01000301018401020A010303B0
:104260000104080105C801060301078D01080801C2
:1042700009C6010A01010B02010C00010DD5010E56
:1042800018010F120110010111820112000113D552
:1042900001141801151301160301178601180A01EC
:1042A0001909011A08011BC2011C03011D8F011EFF
:1042B0000A011FD51431010121020122000123D579
:1042C000012418012522012601012782012800016D
:1042D00029D5012A18012B0B012C28012D78012E3C
:1042E00028012F9101306B34380B01320001330B60
:1042F0000134000135A10136000137A00138000169
:104300003904013A28013B30013C0C013D04013ED7
:104310000F013F7901402801411E01422F014387CF
:104320002024080B01460001470BBF2749A77A2428
:10433000064BA6014C0041124EF315B6242F000186
:1043400051800152090153080154010155000156E1
:104350000F015779015809015905015A00015B60A5
:10436000015C05015DD1015E0C015F3CEC142C6128
:10437000D001620B01630301642801651001662A04
:1043800001673901680B016902016A28016B10019C
:104390006C2A016D61016E0C016F9534110F017172
:1043A0007901720001730B01740001750B9E140DED
:1043B000A10178000179A0017A00017BCB441F04A0
:1043C00001791D017B2701960E0197FE01980301DB
:1043D00099EF019A02019B440173070170A425B96A
:1043E00049AF120A0452050C6108210100000000C7
:0400000508000131BD
:00000001FF
